{"contracts/Verifier.sol":{"Verifier":{"abi":[{"inputs":[{"components":[{"components":[{"internalType":"uint256","name":"X","type":"uint256"},{"internalType":"uint256","name":"Y","type":"uint256"}],"internalType":"struct Pairing.G1Point","name":"a","type":"tuple"},{"components":[{"internalType":"uint256[2]","name":"X","type":"uint256[2]"},{"internalType":"uint256[2]","name":"Y","type":"uint256[2]"}],"internalType":"struct Pairing.G2Point","name":"b","type":"tuple"},{"components":[{"internalType":"uint256","name":"X","type":"uint256"},{"internalType":"uint256","name":"Y","type":"uint256"}],"internalType":"struct Pairing.G1Point","name":"c","type":"tuple"}],"internalType":"struct Verifier.Proof","name":"proof","type":"tuple"},{"internalType":"uint256[4]","name":"input","type":"uint256[4]"}],"name":"verifyTx","outputs":[{"internalType":"bool","name":"r","type":"bool"}],"stateMutability":"view","type":"function"}],"evm":{"bytecode":{"linkReferences":{},"object":"608060405234801561001057600080fd5b50611616806100206000396000f3fe608060405234801561001057600080fd5b506004361061002b5760003560e01c8063799afa7614610030575b600080fd5b61004a600480360381019061004591906113b8565b610060565b6040516100579190611415565b60405180910390f35b600080600467ffffffffffffffff81111561007e5761007d611096565b5b6040519080825280602002602001820160405280156100ac5781602001602082028036833780820191505090505b50905060005b6004811015610105578381600481106100ce576100cd611430565b5b60200201518282815181106100e6576100e5611430565b5b60200260200101818152505080806100fd9061148e565b9150506100b2565b506000610112828661012d565b03610121576001915050610127565b60009150505b92915050565b6000807f30644e72e131a029b85045b68181585d2833e84879b9709143e1f593f00000019050600061015d6102c4565b90508060800151516001865161017391906114d6565b1461017d57600080fd5b60006040518060400160405280600081526020016000815250905060005b865181101561023657838782815181106101b8576101b7611430565b5b6020026020010151106101ca57600080fd5b6102218261021c85608001516001856101e391906114d6565b815181106101f4576101f3611430565b5b60200260200101518a858151811061020f5761020e611430565b5b6020026020010151610830565b6108d2565b9150808061022e9061148e565b91505061019b565b5061026081836080015160008151811061025357610252611430565b5b60200260200101516108d2565b90506102a6856000015186602001516102788461099a565b856040015161028a8a6040015161099a565b876060015161029c896000015161099a565b8960200151610a3f565b6102b657600193505050506102be565b600093505050505b92915050565b6102cc610f62565b60405180604001604052807f204dc3d831eb1a19a08df235c7536e6878fd19a26a7f989c622e0c20f62836d481526020017f033895453a9eb37de7f67c991e0c4d35009c593a1277598b2042a20337c0d8a88152508160000181905250604051806040016040528060405180604001604052807f2424eea85624245183dd5b30047220d8507b512af696e27ef40ca76137630d9681526020017f05363c19b9750f6e066ba475f3ffa047cb5a0f2914d147bf944cc558da153bc8815250815260200160405180604001604052807f11ceb15d545b25cc13d7a05d646e544d822929b86c48fa8c9441c38e2271bb2881526020017f188023572be94281b08a4e90ce2772cdb5ca4b4d212275ced2ac7ef0d2173b928152508152508160200181905250604051806040016040528060405180604001604052807f22dbf462b0bced1446ece63ddaaf013bc801ce4e45dd5b4ef96f624aac73e49481526020017f084af8cbcf13136f900c78f14699fd6eaad9cd71a57cdbfb1f55cd4b80d7a0eb815250815260200160405180604001604052807f1ac44e6212d0d663378a1e52b8150a467ed8f092840bfd1b75bf0c96c8e0df4c81526020017f20582666d9416dcf8dd5ffca07f586ffef0af33a511a0447980442bd9a83624a8152508152508160400181905250604051806040016040528060405180604001604052807f03662fc3e139182b4e16add2a827cd513138399080572a9fb8f2bd1d9a106f4e81526020017f1c63e9cb99a0195c455d5c2e22912b85fe039f8fedecd3f5c1b6141e6c535234815250815260200160405180604001604052807f04bdc1268aa150a30ab927624ebd1f861dff892aa8b95faac0404a43efcf48cd81526020017f2d3f76a3e0dd8ebb58c3dd43b3e8f2ba5a6df231adbaef921f2acdd7c810e2f08152508152508160600181905250600567ffffffffffffffff81111561059357610592611096565b5b6040519080825280602002602001820160405280156105cc57816020015b6105b9610fa9565b8152602001906001900390816105b15790505b50816080018190525060405180604001604052807f0b8dd22d43aafa817ec3c9b6011e202ba2dab08078718439e53575200bee717f81526020017f102ba4276e045e4c0d2686880dc8339a2c64cfb947a32b711256a88f46220424815250816080015160008151811061064257610641611430565b5b602002602001018190525060405180604001604052807f2d9272b13c1085e989ca76704ffa855acf786236d568989fc3c765447e0d3dfa81526020017f28f315dd9dc02e0ac71bf539c30a0a032ef53c7ffbf0780322ecf8e26bf0c88781525081608001516001815181106106ba576106b9611430565b5b602002602001018190525060405180604001604052807f0587884de352b4c97b827e9ca993f55830a8f4eee0e00e33c49949b75ed330e181526020017f28273a3c21763fdde61d5fed06ff8fa6a9fb02f52a52759684646ba4d53d7393815250816080015160028151811061073257610731611430565b5b602002602001018190525060405180604001604052807f1b59033ac53038b3365f2c44aa33eb86466ee13299f87e3e430ca4ffda46484981526020017f170b4beb78e1b5d560820f7802e38af2efe230b1173fbb3319ede6552d81564d81525081608001516003815181106107aa576107a9611430565b5b602002602001018190525060405180604001604052807f2b3bdcf7c866c94247e7fcc56f4c19d5b2af02f8210020b59250904736373ac281526020017f2a7d28a94f01fcc176f084df02e74e6c48898def19f59beef1a8a886993ac307815250816080015160048151811061082257610821611430565b5b602002602001018190525090565b610838610fa9565b610840610fc3565b83600001518160006003811061085957610858611430565b5b60200201818152505083602001518160016003811061087b5761087a611430565b5b602002018181525050828160026003811061089957610898611430565b5b602002018181525050600060608360808460076107d05a03fa905080600081036108bf57fe5b50806108ca57600080fd5b505092915050565b6108da610fa9565b6108e2610fe5565b8360000151816000600481106108fb576108fa611430565b5b60200201818152505083602001518160016004811061091d5761091c611430565b5b60200201818152505082600001518160026004811061093f5761093e611430565b5b60200201818152505082602001518160036004811061096157610960611430565b5b602002018181525050600060608360c08460066107d05a03fa9050806000810361098757fe5b508061099257600080fd5b505092915050565b6109a2610fa9565b60007f30644e72e131a029b85045b68181585d97816a916871ca8d3c208c16d87cfd479050600083600001511480156109df575060008360200151145b15610a03576040518060400160405280600081526020016000815250915050610a3a565b604051806040016040528084600001518152602001828560200151610a289190611539565b83610a33919061156a565b8152509150505b919050565b600080600467ffffffffffffffff811115610a5d57610a5c611096565b5b604051908082528060200260200182016040528015610a9657816020015b610a83610fa9565b815260200190600190039081610a7b5790505b5090506000600467ffffffffffffffff811115610ab657610ab5611096565b5b604051908082528060200260200182016040528015610aef57816020015b610adc611007565b815260200190600190039081610ad45790505b5090508a82600081518110610b0757610b06611430565b5b60200260200101819052508882600181518110610b2757610b26611430565b5b60200260200101819052508682600281518110610b4757610b46611430565b5b60200260200101819052508482600381518110610b6757610b66611430565b5b60200260200101819052508981600081518110610b8757610b86611430565b5b60200260200101819052508781600181518110610ba757610ba6611430565b5b60200260200101819052508581600281518110610bc757610bc6611430565b5b60200260200101819052508381600381518110610be757610be6611430565b5b6020026020010181905250610bfc8282610c0c565b9250505098975050505050505050565b60008151835114610c1c57600080fd5b6000835190506000600682610c31919061159e565b905060008167ffffffffffffffff811115610c4f57610c4e611096565b5b604051908082528060200260200182016040528015610c7d5781602001602082028036833780820191505090505b50905060005b83811015610f0257868181518110610c9e57610c9d611430565b5b602002602001015160000151826000600684610cba919061159e565b610cc491906114d6565b81518110610cd557610cd4611430565b5b602002602001018181525050868181518110610cf457610cf3611430565b5b602002602001015160200151826001600684610d10919061159e565b610d1a91906114d6565b81518110610d2b57610d2a611430565b5b602002602001018181525050858181518110610d4a57610d49611430565b5b602002602001015160000151600160028110610d6957610d68611430565b5b6020020151826002600684610d7e919061159e565b610d8891906114d6565b81518110610d9957610d98611430565b5b602002602001018181525050858181518110610db857610db7611430565b5b602002602001015160000151600060028110610dd757610dd6611430565b5b6020020151826003600684610dec919061159e565b610df691906114d6565b81518110610e0757610e06611430565b5b602002602001018181525050858181518110610e2657610e25611430565b5b602002602001015160200151600160028110610e4557610e44611430565b5b6020020151826004600684610e5a919061159e565b610e6491906114d6565b81518110610e7557610e74611430565b5b602002602001018181525050858181518110610e9457610e93611430565b5b602002602001015160200151600060028110610eb357610eb2611430565b5b6020020151826005600684610ec8919061159e565b610ed291906114d6565b81518110610ee357610ee2611430565b5b6020026020010181815250508080610efa9061148e565b915050610c83565b50610f0b61102d565b6000602082602086026020860160086107d05a03fa90508060008103610f2d57fe5b5080610f3857600080fd5b600082600060018110610f4e57610f4d611430565b5b602002015114159550505050505092915050565b6040518060a00160405280610f75610fa9565b8152602001610f82611007565b8152602001610f8f611007565b8152602001610f9c611007565b8152602001606081525090565b604051806040016040528060008152602001600081525090565b6040518060600160405280600390602082028036833780820191505090505090565b6040518060800160405280600490602082028036833780820191505090505090565b604051806040016040528061101a61104f565b815260200161102761104f565b81525090565b6040518060200160405280600190602082028036833780820191505090505090565b6040518060400160405280600290602082028036833780820191505090505090565b6000604051905090565b600080fd5b600080fd5b6000601f19601f8301169050919050565b7f4e487b7100000000000000000000000000000000000000000000000000000000600052604160045260246000fd5b6110ce82611085565b810181811067ffffffffffffffff821117156110ed576110ec611096565b5b80604052505050565b6000611100611071565b905061110c82826110c5565b919050565b6000819050919050565b61112481611111565b811461112f57600080fd5b50565b6000813590506111418161111b565b92915050565b60006040828403121561115d5761115c611080565b5b61116760406110f6565b9050600061117784828501611132565b600083015250602061118b84828501611132565b60208301525092915050565b600080fd5b600067ffffffffffffffff8211156111b7576111b6611096565b5b602082029050919050565b600080fd5b60006111da6111d58461119c565b6110f6565b905080602084028301858111156111f4576111f36111c2565b5b835b8181101561121d57806112098882611132565b8452602084019350506020810190506111f6565b5050509392505050565b600082601f83011261123c5761123b611197565b5b60026112498482856111c7565b91505092915050565b60006080828403121561126857611267611080565b5b61127260406110f6565b9050600061128284828501611227565b600083015250604061129684828501611227565b60208301525092915050565b600061010082840312156112b9576112b8611080565b5b6112c360606110f6565b905060006112d384828501611147565b60008301525060406112e784828501611252565b60208301525060c06112fb84828501611147565b60408301525092915050565b600067ffffffffffffffff82111561132257611321611096565b5b602082029050919050565b600061134061133b84611307565b6110f6565b9050806020840283018581111561135a576113596111c2565b5b835b81811015611383578061136f8882611132565b84526020840193505060208101905061135c565b5050509392505050565b600082601f8301126113a2576113a1611197565b5b60046113af84828561132d565b91505092915050565b60008061018083850312156113d0576113cf61107b565b5b60006113de858286016112a2565b9250506101006113f08582860161138d565b9150509250929050565b60008115159050919050565b61140f816113fa565b82525050565b600060208201905061142a6000830184611406565b92915050565b7f4e487b7100000000000000000000000000000000000000000000000000000000600052603260045260246000fd5b7f4e487b7100000000000000000000000000000000000000000000000000000000600052601160045260246000fd5b600061149982611111565b91507fffffffffffffffffffffffffffffffffffffffffffffffffffffffffffffffff82036114cb576114ca61145f565b5b600182019050919050565b60006114e182611111565b91506114ec83611111565b92508282019050808211156115045761150361145f565b5b92915050565b7f4e487b7100000000000000000000000000000000000000000000000000000000600052601260045260246000fd5b600061154482611111565b915061154f83611111565b92508261155f5761155e61150a565b5b828206905092915050565b600061157582611111565b915061158083611111565b92508282039050818111156115985761159761145f565b5b92915050565b60006115a982611111565b91506115b483611111565b92508282026115c281611111565b915082820484148315176115d9576115d861145f565b5b509291505056fea2646970667358221220aa0bebf2309c60c0d8f79e0fcea7aa6f65ee8d3a098db0064d453864ae663a0a64736f6c63430008140033","opcodes":"PUSH1 0x80 PUSH1 0x40 MSTORE CALLVALUE DUP1 ISZERO PUSH2 0x10 JUMPI PUSH1 0x0 DUP1 REVERT JUMPDEST POP PUSH2 0x1616 DUP1 PUSH2 0x20 PUSH1 0x0 CODECOPY PUSH1 0x0 RETURN INVALID PUSH1 0x80 PUSH1 0x40 MSTORE CALLVALUE DUP1 ISZERO PUSH2 0x10 JUMPI PUSH1 0x0 DUP1 REVERT JUMPDEST POP PUSH1 0x4 CALLDATASIZE LT PUSH2 0x2B JUMPI PUSH1 0x0 CALLDATALOAD PUSH1 0xE0 SHR DUP1 PUSH4 0x799AFA76 EQ PUSH2 0x30 JUMPI JUMPDEST PUSH1 0x0 DUP1 REVERT JUMPDEST PUSH2 0x4A PUSH1 0x4 DUP1 CALLDATASIZE SUB DUP2 ADD SWAP1 PUSH2 0x45 SWAP2 SWAP1 PUSH2 0x13B8 JUMP JUMPDEST PUSH2 0x60 JUMP JUMPDEST PUSH1 0x40 MLOAD PUSH2 0x57 SWAP2 SWAP1 PUSH2 0x1415 JUMP JUMPDEST PUSH1 0x40 MLOAD DUP1 SWAP2 SUB SWAP1 RETURN JUMPDEST PUSH1 0x0 DUP1 PUSH1 0x4 PUSH8 0xFFFFFFFFFFFFFFFF DUP2 GT ISZERO PUSH2 0x7E JUMPI PUSH2 0x7D PUSH2 0x1096 JUMP JUMPDEST JUMPDEST PUSH1 0x40 MLOAD SWAP1 DUP1 DUP3 MSTORE DUP1 PUSH1 0x20 MUL PUSH1 0x20 ADD DUP3 ADD PUSH1 0x40 MSTORE DUP1 ISZERO PUSH2 0xAC JUMPI DUP2 PUSH1 0x20 ADD PUSH1 0x20 DUP3 MUL DUP1 CALLDATASIZE DUP4 CALLDATACOPY DUP1 DUP3 ADD SWAP2 POP POP SWAP1 POP JUMPDEST POP SWAP1 POP PUSH1 0x0 JUMPDEST PUSH1 0x4 DUP2 LT ISZERO PUSH2 0x105 JUMPI DUP4 DUP2 PUSH1 0x4 DUP2 LT PUSH2 0xCE JUMPI PUSH2 0xCD PUSH2 0x1430 JUMP JUMPDEST JUMPDEST PUSH1 0x20 MUL ADD MLOAD DUP3 DUP3 DUP2 MLOAD DUP2 LT PUSH2 0xE6 JUMPI PUSH2 0xE5 PUSH2 0x1430 JUMP JUMPDEST JUMPDEST PUSH1 0x20 MUL PUSH1 0x20 ADD ADD DUP2 DUP2 MSTORE POP POP DUP1 DUP1 PUSH2 0xFD SWAP1 PUSH2 0x148E JUMP JUMPDEST SWAP2 POP POP PUSH2 0xB2 JUMP JUMPDEST POP PUSH1 0x0 PUSH2 0x112 DUP3 DUP7 PUSH2 0x12D JUMP JUMPDEST SUB PUSH2 0x121 JUMPI PUSH1 0x1 SWAP2 POP POP PUSH2 0x127 JUMP JUMPDEST PUSH1 0x0 SWAP2 POP POP JUMPDEST SWAP3 SWAP2 POP POP JUMP JUMPDEST PUSH1 0x0 DUP1 PUSH32 0x30644E72E131A029B85045B68181585D2833E84879B9709143E1F593F0000001 SWAP1 POP PUSH1 0x0 PUSH2 0x15D PUSH2 0x2C4 JUMP JUMPDEST SWAP1 POP DUP1 PUSH1 0x80 ADD MLOAD MLOAD PUSH1 0x1 DUP7 MLOAD PUSH2 0x173 SWAP2 SWAP1 PUSH2 0x14D6 JUMP JUMPDEST EQ PUSH2 0x17D JUMPI PUSH1 0x0 DUP1 REVERT JUMPDEST PUSH1 0x0 PUSH1 0x40 MLOAD DUP1 PUSH1 0x40 ADD PUSH1 0x40 MSTORE DUP1 PUSH1 0x0 DUP2 MSTORE PUSH1 0x20 ADD PUSH1 0x0 DUP2 MSTORE POP SWAP1 POP PUSH1 0x0 JUMPDEST DUP7 MLOAD DUP2 LT ISZERO PUSH2 0x236 JUMPI DUP4 DUP8 DUP3 DUP2 MLOAD DUP2 LT PUSH2 0x1B8 JUMPI PUSH2 0x1B7 PUSH2 0x1430 JUMP JUMPDEST JUMPDEST PUSH1 0x20 MUL PUSH1 0x20 ADD ADD MLOAD LT PUSH2 0x1CA JUMPI PUSH1 0x0 DUP1 REVERT JUMPDEST PUSH2 0x221 DUP3 PUSH2 0x21C DUP6 PUSH1 0x80 ADD MLOAD PUSH1 0x1 DUP6 PUSH2 0x1E3 SWAP2 SWAP1 PUSH2 0x14D6 JUMP JUMPDEST DUP2 MLOAD DUP2 LT PUSH2 0x1F4 JUMPI PUSH2 0x1F3 PUSH2 0x1430 JUMP JUMPDEST JUMPDEST PUSH1 0x20 MUL PUSH1 0x20 ADD ADD MLOAD DUP11 DUP6 DUP2 MLOAD DUP2 LT PUSH2 0x20F JUMPI PUSH2 0x20E PUSH2 0x1430 JUMP JUMPDEST JUMPDEST PUSH1 0x20 MUL PUSH1 0x20 ADD ADD MLOAD PUSH2 0x830 JUMP JUMPDEST PUSH2 0x8D2 JUMP JUMPDEST SWAP2 POP DUP1 DUP1 PUSH2 0x22E SWAP1 PUSH2 0x148E JUMP JUMPDEST SWAP2 POP POP PUSH2 0x19B JUMP JUMPDEST POP PUSH2 0x260 DUP2 DUP4 PUSH1 0x80 ADD MLOAD PUSH1 0x0 DUP2 MLOAD DUP2 LT PUSH2 0x253 JUMPI PUSH2 0x252 PUSH2 0x1430 JUMP JUMPDEST JUMPDEST PUSH1 0x20 MUL PUSH1 0x20 ADD ADD MLOAD PUSH2 0x8D2 JUMP JUMPDEST SWAP1 POP PUSH2 0x2A6 DUP6 PUSH1 0x0 ADD MLOAD DUP7 PUSH1 0x20 ADD MLOAD PUSH2 0x278 DUP5 PUSH2 0x99A JUMP JUMPDEST DUP6 PUSH1 0x40 ADD MLOAD PUSH2 0x28A DUP11 PUSH1 0x40 ADD MLOAD PUSH2 0x99A JUMP JUMPDEST DUP8 PUSH1 0x60 ADD MLOAD PUSH2 0x29C DUP10 PUSH1 0x0 ADD MLOAD PUSH2 0x99A JUMP JUMPDEST DUP10 PUSH1 0x20 ADD MLOAD PUSH2 0xA3F JUMP JUMPDEST PUSH2 0x2B6 JUMPI PUSH1 0x1 SWAP4 POP POP POP POP PUSH2 0x2BE JUMP JUMPDEST PUSH1 0x0 SWAP4 POP POP POP POP JUMPDEST SWAP3 SWAP2 POP POP JUMP JUMPDEST PUSH2 0x2CC PUSH2 0xF62 JUMP JUMPDEST PUSH1 0x40 MLOAD DUP1 PUSH1 0x40 ADD PUSH1 0x40 MSTORE DUP1 PUSH32 0x204DC3D831EB1A19A08DF235C7536E6878FD19A26A7F989C622E0C20F62836D4 DUP2 MSTORE PUSH1 0x20 ADD PUSH32 0x33895453A9EB37DE7F67C991E0C4D35009C593A1277598B2042A20337C0D8A8 DUP2 MSTORE POP DUP2 PUSH1 0x0 ADD DUP2 SWAP1 MSTORE POP PUSH1 0x40 MLOAD DUP1 PUSH1 0x40 ADD PUSH1 0x40 MSTORE DUP1 PUSH1 0x40 MLOAD DUP1 PUSH1 0x40 ADD PUSH1 0x40 MSTORE DUP1 PUSH32 0x2424EEA85624245183DD5B30047220D8507B512AF696E27EF40CA76137630D96 DUP2 MSTORE PUSH1 0x20 ADD PUSH32 0x5363C19B9750F6E066BA475F3FFA047CB5A0F2914D147BF944CC558DA153BC8 DUP2 MSTORE POP DUP2 MSTORE PUSH1 0x20 ADD PUSH1 0x40 MLOAD DUP1 PUSH1 0x40 ADD PUSH1 0x40 MSTORE DUP1 PUSH32 0x11CEB15D545B25CC13D7A05D646E544D822929B86C48FA8C9441C38E2271BB28 DUP2 MSTORE PUSH1 0x20 ADD PUSH32 0x188023572BE94281B08A4E90CE2772CDB5CA4B4D212275CED2AC7EF0D2173B92 DUP2 MSTORE POP DUP2 MSTORE POP DUP2 PUSH1 0x20 ADD DUP2 SWAP1 MSTORE POP PUSH1 0x40 MLOAD DUP1 PUSH1 0x40 ADD PUSH1 0x40 MSTORE DUP1 PUSH1 0x40 MLOAD DUP1 PUSH1 0x40 ADD PUSH1 0x40 MSTORE DUP1 PUSH32 0x22DBF462B0BCED1446ECE63DDAAF013BC801CE4E45DD5B4EF96F624AAC73E494 DUP2 MSTORE PUSH1 0x20 ADD PUSH32 0x84AF8CBCF13136F900C78F14699FD6EAAD9CD71A57CDBFB1F55CD4B80D7A0EB DUP2 MSTORE POP DUP2 MSTORE PUSH1 0x20 ADD PUSH1 0x40 MLOAD DUP1 PUSH1 0x40 ADD PUSH1 0x40 MSTORE DUP1 PUSH32 0x1AC44E6212D0D663378A1E52B8150A467ED8F092840BFD1B75BF0C96C8E0DF4C DUP2 MSTORE PUSH1 0x20 ADD PUSH32 0x20582666D9416DCF8DD5FFCA07F586FFEF0AF33A511A0447980442BD9A83624A DUP2 MSTORE POP DUP2 MSTORE POP DUP2 PUSH1 0x40 ADD DUP2 SWAP1 MSTORE POP PUSH1 0x40 MLOAD DUP1 PUSH1 0x40 ADD PUSH1 0x40 MSTORE DUP1 PUSH1 0x40 MLOAD DUP1 PUSH1 0x40 ADD PUSH1 0x40 MSTORE DUP1 PUSH32 0x3662FC3E139182B4E16ADD2A827CD513138399080572A9FB8F2BD1D9A106F4E DUP2 MSTORE PUSH1 0x20 ADD PUSH32 0x1C63E9CB99A0195C455D5C2E22912B85FE039F8FEDECD3F5C1B6141E6C535234 DUP2 MSTORE POP DUP2 MSTORE PUSH1 0x20 ADD PUSH1 0x40 MLOAD DUP1 PUSH1 0x40 ADD PUSH1 0x40 MSTORE DUP1 PUSH32 0x4BDC1268AA150A30AB927624EBD1F861DFF892AA8B95FAAC0404A43EFCF48CD DUP2 MSTORE PUSH1 0x20 ADD PUSH32 0x2D3F76A3E0DD8EBB58C3DD43B3E8F2BA5A6DF231ADBAEF921F2ACDD7C810E2F0 DUP2 MSTORE POP DUP2 MSTORE POP DUP2 PUSH1 0x60 ADD DUP2 SWAP1 MSTORE POP PUSH1 0x5 PUSH8 0xFFFFFFFFFFFFFFFF DUP2 GT ISZERO PUSH2 0x593 JUMPI PUSH2 0x592 PUSH2 0x1096 JUMP JUMPDEST JUMPDEST PUSH1 0x40 MLOAD SWAP1 DUP1 DUP3 MSTORE DUP1 PUSH1 0x20 MUL PUSH1 0x20 ADD DUP3 ADD PUSH1 0x40 MSTORE DUP1 ISZERO PUSH2 0x5CC JUMPI DUP2 PUSH1 0x20 ADD JUMPDEST PUSH2 0x5B9 PUSH2 0xFA9 JUMP JUMPDEST DUP2 MSTORE PUSH1 0x20 ADD SWAP1 PUSH1 0x1 SWAP1 SUB SWAP1 DUP2 PUSH2 0x5B1 JUMPI SWAP1 POP JUMPDEST POP DUP2 PUSH1 0x80 ADD DUP2 SWAP1 MSTORE POP PUSH1 0x40 MLOAD DUP1 PUSH1 0x40 ADD PUSH1 0x40 MSTORE DUP1 PUSH32 0xB8DD22D43AAFA817EC3C9B6011E202BA2DAB08078718439E53575200BEE717F DUP2 MSTORE PUSH1 0x20 ADD PUSH32 0x102BA4276E045E4C0D2686880DC8339A2C64CFB947A32B711256A88F46220424 DUP2 MSTORE POP DUP2 PUSH1 0x80 ADD MLOAD PUSH1 0x0 DUP2 MLOAD DUP2 LT PUSH2 0x642 JUMPI PUSH2 0x641 PUSH2 0x1430 JUMP JUMPDEST JUMPDEST PUSH1 0x20 MUL PUSH1 0x20 ADD ADD DUP2 SWAP1 MSTORE POP PUSH1 0x40 MLOAD DUP1 PUSH1 0x40 ADD PUSH1 0x40 MSTORE DUP1 PUSH32 0x2D9272B13C1085E989CA76704FFA855ACF786236D568989FC3C765447E0D3DFA DUP2 MSTORE PUSH1 0x20 ADD PUSH32 0x28F315DD9DC02E0AC71BF539C30A0A032EF53C7FFBF0780322ECF8E26BF0C887 DUP2 MSTORE POP DUP2 PUSH1 0x80 ADD MLOAD PUSH1 0x1 DUP2 MLOAD DUP2 LT PUSH2 0x6BA JUMPI PUSH2 0x6B9 PUSH2 0x1430 JUMP JUMPDEST JUMPDEST PUSH1 0x20 MUL PUSH1 0x20 ADD ADD DUP2 SWAP1 MSTORE POP PUSH1 0x40 MLOAD DUP1 PUSH1 0x40 ADD PUSH1 0x40 MSTORE DUP1 PUSH32 0x587884DE352B4C97B827E9CA993F55830A8F4EEE0E00E33C49949B75ED330E1 DUP2 MSTORE PUSH1 0x20 ADD PUSH32 0x28273A3C21763FDDE61D5FED06FF8FA6A9FB02F52A52759684646BA4D53D7393 DUP2 MSTORE POP DUP2 PUSH1 0x80 ADD MLOAD PUSH1 0x2 DUP2 MLOAD DUP2 LT PUSH2 0x732 JUMPI PUSH2 0x731 PUSH2 0x1430 JUMP JUMPDEST JUMPDEST PUSH1 0x20 MUL PUSH1 0x20 ADD ADD DUP2 SWAP1 MSTORE POP PUSH1 0x40 MLOAD DUP1 PUSH1 0x40 ADD PUSH1 0x40 MSTORE DUP1 PUSH32 0x1B59033AC53038B3365F2C44AA33EB86466EE13299F87E3E430CA4FFDA464849 DUP2 MSTORE PUSH1 0x20 ADD PUSH32 0x170B4BEB78E1B5D560820F7802E38AF2EFE230B1173FBB3319EDE6552D81564D DUP2 MSTORE POP DUP2 PUSH1 0x80 ADD MLOAD PUSH1 0x3 DUP2 MLOAD DUP2 LT PUSH2 0x7AA JUMPI PUSH2 0x7A9 PUSH2 0x1430 JUMP JUMPDEST JUMPDEST PUSH1 0x20 MUL PUSH1 0x20 ADD ADD DUP2 SWAP1 MSTORE POP PUSH1 0x40 MLOAD DUP1 PUSH1 0x40 ADD PUSH1 0x40 MSTORE DUP1 PUSH32 0x2B3BDCF7C866C94247E7FCC56F4C19D5B2AF02F8210020B59250904736373AC2 DUP2 MSTORE PUSH1 0x20 ADD PUSH32 0x2A7D28A94F01FCC176F084DF02E74E6C48898DEF19F59BEEF1A8A886993AC307 DUP2 MSTORE POP DUP2 PUSH1 0x80 ADD MLOAD PUSH1 0x4 DUP2 MLOAD DUP2 LT PUSH2 0x822 JUMPI PUSH2 0x821 PUSH2 0x1430 JUMP JUMPDEST JUMPDEST PUSH1 0x20 MUL PUSH1 0x20 ADD ADD DUP2 SWAP1 MSTORE POP SWAP1 JUMP JUMPDEST PUSH2 0x838 PUSH2 0xFA9 JUMP JUMPDEST PUSH2 0x840 PUSH2 0xFC3 JUMP JUMPDEST DUP4 PUSH1 0x0 ADD MLOAD DUP2 PUSH1 0x0 PUSH1 0x3 DUP2 LT PUSH2 0x859 JUMPI PUSH2 0x858 PUSH2 0x1430 JUMP JUMPDEST JUMPDEST PUSH1 0x20 MUL ADD DUP2 DUP2 MSTORE POP POP DUP4 PUSH1 0x20 ADD MLOAD DUP2 PUSH1 0x1 PUSH1 0x3 DUP2 LT PUSH2 0x87B JUMPI PUSH2 0x87A PUSH2 0x1430 JUMP JUMPDEST JUMPDEST PUSH1 0x20 MUL ADD DUP2 DUP2 MSTORE POP POP DUP3 DUP2 PUSH1 0x2 PUSH1 0x3 DUP2 LT PUSH2 0x899 JUMPI PUSH2 0x898 PUSH2 0x1430 JUMP JUMPDEST JUMPDEST PUSH1 0x20 MUL ADD DUP2 DUP2 MSTORE POP POP PUSH1 0x0 PUSH1 0x60 DUP4 PUSH1 0x80 DUP5 PUSH1 0x7 PUSH2 0x7D0 GAS SUB STATICCALL SWAP1 POP DUP1 PUSH1 0x0 DUP2 SUB PUSH2 0x8BF JUMPI INVALID JUMPDEST POP DUP1 PUSH2 0x8CA JUMPI PUSH1 0x0 DUP1 REVERT JUMPDEST POP POP SWAP3 SWAP2 POP POP JUMP JUMPDEST PUSH2 0x8DA PUSH2 0xFA9 JUMP JUMPDEST PUSH2 0x8E2 PUSH2 0xFE5 JUMP JUMPDEST DUP4 PUSH1 0x0 ADD MLOAD DUP2 PUSH1 0x0 PUSH1 0x4 DUP2 LT PUSH2 0x8FB JUMPI PUSH2 0x8FA PUSH2 0x1430 JUMP JUMPDEST JUMPDEST PUSH1 0x20 MUL ADD DUP2 DUP2 MSTORE POP POP DUP4 PUSH1 0x20 ADD MLOAD DUP2 PUSH1 0x1 PUSH1 0x4 DUP2 LT PUSH2 0x91D JUMPI PUSH2 0x91C PUSH2 0x1430 JUMP JUMPDEST JUMPDEST PUSH1 0x20 MUL ADD DUP2 DUP2 MSTORE POP POP DUP3 PUSH1 0x0 ADD MLOAD DUP2 PUSH1 0x2 PUSH1 0x4 DUP2 LT PUSH2 0x93F JUMPI PUSH2 0x93E PUSH2 0x1430 JUMP JUMPDEST JUMPDEST PUSH1 0x20 MUL ADD DUP2 DUP2 MSTORE POP POP DUP3 PUSH1 0x20 ADD MLOAD DUP2 PUSH1 0x3 PUSH1 0x4 DUP2 LT PUSH2 0x961 JUMPI PUSH2 0x960 PUSH2 0x1430 JUMP JUMPDEST JUMPDEST PUSH1 0x20 MUL ADD DUP2 DUP2 MSTORE POP POP PUSH1 0x0 PUSH1 0x60 DUP4 PUSH1 0xC0 DUP5 PUSH1 0x6 PUSH2 0x7D0 GAS SUB STATICCALL SWAP1 POP DUP1 PUSH1 0x0 DUP2 SUB PUSH2 0x987 JUMPI INVALID JUMPDEST POP DUP1 PUSH2 0x992 JUMPI PUSH1 0x0 DUP1 REVERT JUMPDEST POP POP SWAP3 SWAP2 POP POP JUMP JUMPDEST PUSH2 0x9A2 PUSH2 0xFA9 JUMP JUMPDEST PUSH1 0x0 PUSH32 0x30644E72E131A029B85045B68181585D97816A916871CA8D3C208C16D87CFD47 SWAP1 POP PUSH1 0x0 DUP4 PUSH1 0x0 ADD MLOAD EQ DUP1 ISZERO PUSH2 0x9DF JUMPI POP PUSH1 0x0 DUP4 PUSH1 0x20 ADD MLOAD EQ JUMPDEST ISZERO PUSH2 0xA03 JUMPI PUSH1 0x40 MLOAD DUP1 PUSH1 0x40 ADD PUSH1 0x40 MSTORE DUP1 PUSH1 0x0 DUP2 MSTORE PUSH1 0x20 ADD PUSH1 0x0 DUP2 MSTORE POP SWAP2 POP POP PUSH2 0xA3A JUMP JUMPDEST PUSH1 0x40 MLOAD DUP1 PUSH1 0x40 ADD PUSH1 0x40 MSTORE DUP1 DUP5 PUSH1 0x0 ADD MLOAD DUP2 MSTORE PUSH1 0x20 ADD DUP3 DUP6 PUSH1 0x20 ADD MLOAD PUSH2 0xA28 SWAP2 SWAP1 PUSH2 0x1539 JUMP JUMPDEST DUP4 PUSH2 0xA33 SWAP2 SWAP1 PUSH2 0x156A JUMP JUMPDEST DUP2 MSTORE POP SWAP2 POP POP JUMPDEST SWAP2 SWAP1 POP JUMP JUMPDEST PUSH1 0x0 DUP1 PUSH1 0x4 PUSH8 0xFFFFFFFFFFFFFFFF DUP2 GT ISZERO PUSH2 0xA5D JUMPI PUSH2 0xA5C PUSH2 0x1096 JUMP JUMPDEST JUMPDEST PUSH1 0x40 MLOAD SWAP1 DUP1 DUP3 MSTORE DUP1 PUSH1 0x20 MUL PUSH1 0x20 ADD DUP3 ADD PUSH1 0x40 MSTORE DUP1 ISZERO PUSH2 0xA96 JUMPI DUP2 PUSH1 0x20 ADD JUMPDEST PUSH2 0xA83 PUSH2 0xFA9 JUMP JUMPDEST DUP2 MSTORE PUSH1 0x20 ADD SWAP1 PUSH1 0x1 SWAP1 SUB SWAP1 DUP2 PUSH2 0xA7B JUMPI SWAP1 POP JUMPDEST POP SWAP1 POP PUSH1 0x0 PUSH1 0x4 PUSH8 0xFFFFFFFFFFFFFFFF DUP2 GT ISZERO PUSH2 0xAB6 JUMPI PUSH2 0xAB5 PUSH2 0x1096 JUMP JUMPDEST JUMPDEST PUSH1 0x40 MLOAD SWAP1 DUP1 DUP3 MSTORE DUP1 PUSH1 0x20 MUL PUSH1 0x20 ADD DUP3 ADD PUSH1 0x40 MSTORE DUP1 ISZERO PUSH2 0xAEF JUMPI DUP2 PUSH1 0x20 ADD JUMPDEST PUSH2 0xADC PUSH2 0x1007 JUMP JUMPDEST DUP2 MSTORE PUSH1 0x20 ADD SWAP1 PUSH1 0x1 SWAP1 SUB SWAP1 DUP2 PUSH2 0xAD4 JUMPI SWAP1 POP JUMPDEST POP SWAP1 POP DUP11 DUP3 PUSH1 0x0 DUP2 MLOAD DUP2 LT PUSH2 0xB07 JUMPI PUSH2 0xB06 PUSH2 0x1430 JUMP JUMPDEST JUMPDEST PUSH1 0x20 MUL PUSH1 0x20 ADD ADD DUP2 SWAP1 MSTORE POP DUP9 DUP3 PUSH1 0x1 DUP2 MLOAD DUP2 LT PUSH2 0xB27 JUMPI PUSH2 0xB26 PUSH2 0x1430 JUMP JUMPDEST JUMPDEST PUSH1 0x20 MUL PUSH1 0x20 ADD ADD DUP2 SWAP1 MSTORE POP DUP7 DUP3 PUSH1 0x2 DUP2 MLOAD DUP2 LT PUSH2 0xB47 JUMPI PUSH2 0xB46 PUSH2 0x1430 JUMP JUMPDEST JUMPDEST PUSH1 0x20 MUL PUSH1 0x20 ADD ADD DUP2 SWAP1 MSTORE POP DUP5 DUP3 PUSH1 0x3 DUP2 MLOAD DUP2 LT PUSH2 0xB67 JUMPI PUSH2 0xB66 PUSH2 0x1430 JUMP JUMPDEST JUMPDEST PUSH1 0x20 MUL PUSH1 0x20 ADD ADD DUP2 SWAP1 MSTORE POP DUP10 DUP2 PUSH1 0x0 DUP2 MLOAD DUP2 LT PUSH2 0xB87 JUMPI PUSH2 0xB86 PUSH2 0x1430 JUMP JUMPDEST JUMPDEST PUSH1 0x20 MUL PUSH1 0x20 ADD ADD DUP2 SWAP1 MSTORE POP DUP8 DUP2 PUSH1 0x1 DUP2 MLOAD DUP2 LT PUSH2 0xBA7 JUMPI PUSH2 0xBA6 PUSH2 0x1430 JUMP JUMPDEST JUMPDEST PUSH1 0x20 MUL PUSH1 0x20 ADD ADD DUP2 SWAP1 MSTORE POP DUP6 DUP2 PUSH1 0x2 DUP2 MLOAD DUP2 LT PUSH2 0xBC7 JUMPI PUSH2 0xBC6 PUSH2 0x1430 JUMP JUMPDEST JUMPDEST PUSH1 0x20 MUL PUSH1 0x20 ADD ADD DUP2 SWAP1 MSTORE POP DUP4 DUP2 PUSH1 0x3 DUP2 MLOAD DUP2 LT PUSH2 0xBE7 JUMPI PUSH2 0xBE6 PUSH2 0x1430 JUMP JUMPDEST JUMPDEST PUSH1 0x20 MUL PUSH1 0x20 ADD ADD DUP2 SWAP1 MSTORE POP PUSH2 0xBFC DUP3 DUP3 PUSH2 0xC0C JUMP JUMPDEST SWAP3 POP POP POP SWAP9 SWAP8 POP POP POP POP POP POP POP POP JUMP JUMPDEST PUSH1 0x0 DUP2 MLOAD DUP4 MLOAD EQ PUSH2 0xC1C JUMPI PUSH1 0x0 DUP1 REVERT JUMPDEST PUSH1 0x0 DUP4 MLOAD SWAP1 POP PUSH1 0x0 PUSH1 0x6 DUP3 PUSH2 0xC31 SWAP2 SWAP1 PUSH2 0x159E JUMP JUMPDEST SWAP1 POP PUSH1 0x0 DUP2 PUSH8 0xFFFFFFFFFFFFFFFF DUP2 GT ISZERO PUSH2 0xC4F JUMPI PUSH2 0xC4E PUSH2 0x1096 JUMP JUMPDEST JUMPDEST PUSH1 0x40 MLOAD SWAP1 DUP1 DUP3 MSTORE DUP1 PUSH1 0x20 MUL PUSH1 0x20 ADD DUP3 ADD PUSH1 0x40 MSTORE DUP1 ISZERO PUSH2 0xC7D JUMPI DUP2 PUSH1 0x20 ADD PUSH1 0x20 DUP3 MUL DUP1 CALLDATASIZE DUP4 CALLDATACOPY DUP1 DUP3 ADD SWAP2 POP POP SWAP1 POP JUMPDEST POP SWAP1 POP PUSH1 0x0 JUMPDEST DUP4 DUP2 LT ISZERO PUSH2 0xF02 JUMPI DUP7 DUP2 DUP2 MLOAD DUP2 LT PUSH2 0xC9E JUMPI PUSH2 0xC9D PUSH2 0x1430 JUMP JUMPDEST JUMPDEST PUSH1 0x20 MUL PUSH1 0x20 ADD ADD MLOAD PUSH1 0x0 ADD MLOAD DUP3 PUSH1 0x0 PUSH1 0x6 DUP5 PUSH2 0xCBA SWAP2 SWAP1 PUSH2 0x159E JUMP JUMPDEST PUSH2 0xCC4 SWAP2 SWAP1 PUSH2 0x14D6 JUMP JUMPDEST DUP2 MLOAD DUP2 LT PUSH2 0xCD5 JUMPI PUSH2 0xCD4 PUSH2 0x1430 JUMP JUMPDEST JUMPDEST PUSH1 0x20 MUL PUSH1 0x20 ADD ADD DUP2 DUP2 MSTORE POP POP DUP7 DUP2 DUP2 MLOAD DUP2 LT PUSH2 0xCF4 JUMPI PUSH2 0xCF3 PUSH2 0x1430 JUMP JUMPDEST JUMPDEST PUSH1 0x20 MUL PUSH1 0x20 ADD ADD MLOAD PUSH1 0x20 ADD MLOAD DUP3 PUSH1 0x1 PUSH1 0x6 DUP5 PUSH2 0xD10 SWAP2 SWAP1 PUSH2 0x159E JUMP JUMPDEST PUSH2 0xD1A SWAP2 SWAP1 PUSH2 0x14D6 JUMP JUMPDEST DUP2 MLOAD DUP2 LT PUSH2 0xD2B JUMPI PUSH2 0xD2A PUSH2 0x1430 JUMP JUMPDEST JUMPDEST PUSH1 0x20 MUL PUSH1 0x20 ADD ADD DUP2 DUP2 MSTORE POP POP DUP6 DUP2 DUP2 MLOAD DUP2 LT PUSH2 0xD4A JUMPI PUSH2 0xD49 PUSH2 0x1430 JUMP JUMPDEST JUMPDEST PUSH1 0x20 MUL PUSH1 0x20 ADD ADD MLOAD PUSH1 0x0 ADD MLOAD PUSH1 0x1 PUSH1 0x2 DUP2 LT PUSH2 0xD69 JUMPI PUSH2 0xD68 PUSH2 0x1430 JUMP JUMPDEST JUMPDEST PUSH1 0x20 MUL ADD MLOAD DUP3 PUSH1 0x2 PUSH1 0x6 DUP5 PUSH2 0xD7E SWAP2 SWAP1 PUSH2 0x159E JUMP JUMPDEST PUSH2 0xD88 SWAP2 SWAP1 PUSH2 0x14D6 JUMP JUMPDEST DUP2 MLOAD DUP2 LT PUSH2 0xD99 JUMPI PUSH2 0xD98 PUSH2 0x1430 JUMP JUMPDEST JUMPDEST PUSH1 0x20 MUL PUSH1 0x20 ADD ADD DUP2 DUP2 MSTORE POP POP DUP6 DUP2 DUP2 MLOAD DUP2 LT PUSH2 0xDB8 JUMPI PUSH2 0xDB7 PUSH2 0x1430 JUMP JUMPDEST JUMPDEST PUSH1 0x20 MUL PUSH1 0x20 ADD ADD MLOAD PUSH1 0x0 ADD MLOAD PUSH1 0x0 PUSH1 0x2 DUP2 LT PUSH2 0xDD7 JUMPI PUSH2 0xDD6 PUSH2 0x1430 JUMP JUMPDEST JUMPDEST PUSH1 0x20 MUL ADD MLOAD DUP3 PUSH1 0x3 PUSH1 0x6 DUP5 PUSH2 0xDEC SWAP2 SWAP1 PUSH2 0x159E JUMP JUMPDEST PUSH2 0xDF6 SWAP2 SWAP1 PUSH2 0x14D6 JUMP JUMPDEST DUP2 MLOAD DUP2 LT PUSH2 0xE07 JUMPI PUSH2 0xE06 PUSH2 0x1430 JUMP JUMPDEST JUMPDEST PUSH1 0x20 MUL PUSH1 0x20 ADD ADD DUP2 DUP2 MSTORE POP POP DUP6 DUP2 DUP2 MLOAD DUP2 LT PUSH2 0xE26 JUMPI PUSH2 0xE25 PUSH2 0x1430 JUMP JUMPDEST JUMPDEST PUSH1 0x20 MUL PUSH1 0x20 ADD ADD MLOAD PUSH1 0x20 ADD MLOAD PUSH1 0x1 PUSH1 0x2 DUP2 LT PUSH2 0xE45 JUMPI PUSH2 0xE44 PUSH2 0x1430 JUMP JUMPDEST JUMPDEST PUSH1 0x20 MUL ADD MLOAD DUP3 PUSH1 0x4 PUSH1 0x6 DUP5 PUSH2 0xE5A SWAP2 SWAP1 PUSH2 0x159E JUMP JUMPDEST PUSH2 0xE64 SWAP2 SWAP1 PUSH2 0x14D6 JUMP JUMPDEST DUP2 MLOAD DUP2 LT PUSH2 0xE75 JUMPI PUSH2 0xE74 PUSH2 0x1430 JUMP JUMPDEST JUMPDEST PUSH1 0x20 MUL PUSH1 0x20 ADD ADD DUP2 DUP2 MSTORE POP POP DUP6 DUP2 DUP2 MLOAD DUP2 LT PUSH2 0xE94 JUMPI PUSH2 0xE93 PUSH2 0x1430 JUMP JUMPDEST JUMPDEST PUSH1 0x20 MUL PUSH1 0x20 ADD ADD MLOAD PUSH1 0x20 ADD MLOAD PUSH1 0x0 PUSH1 0x2 DUP2 LT PUSH2 0xEB3 JUMPI PUSH2 0xEB2 PUSH2 0x1430 JUMP JUMPDEST JUMPDEST PUSH1 0x20 MUL ADD MLOAD DUP3 PUSH1 0x5 PUSH1 0x6 DUP5 PUSH2 0xEC8 SWAP2 SWAP1 PUSH2 0x159E JUMP JUMPDEST PUSH2 0xED2 SWAP2 SWAP1 PUSH2 0x14D6 JUMP JUMPDEST DUP2 MLOAD DUP2 LT PUSH2 0xEE3 JUMPI PUSH2 0xEE2 PUSH2 0x1430 JUMP JUMPDEST JUMPDEST PUSH1 0x20 MUL PUSH1 0x20 ADD ADD DUP2 DUP2 MSTORE POP POP DUP1 DUP1 PUSH2 0xEFA SWAP1 PUSH2 0x148E JUMP JUMPDEST SWAP2 POP POP PUSH2 0xC83 JUMP JUMPDEST POP PUSH2 0xF0B PUSH2 0x102D JUMP JUMPDEST PUSH1 0x0 PUSH1 0x20 DUP3 PUSH1 0x20 DUP7 MUL PUSH1 0x20 DUP7 ADD PUSH1 0x8 PUSH2 0x7D0 GAS SUB STATICCALL SWAP1 POP DUP1 PUSH1 0x0 DUP2 SUB PUSH2 0xF2D JUMPI INVALID JUMPDEST POP DUP1 PUSH2 0xF38 JUMPI PUSH1 0x0 DUP1 REVERT JUMPDEST PUSH1 0x0 DUP3 PUSH1 0x0 PUSH1 0x1 DUP2 LT PUSH2 0xF4E JUMPI PUSH2 0xF4D PUSH2 0x1430 JUMP JUMPDEST JUMPDEST PUSH1 0x20 MUL ADD MLOAD EQ ISZERO SWAP6 POP POP POP POP POP POP SWAP3 SWAP2 POP POP JUMP JUMPDEST PUSH1 0x40 MLOAD DUP1 PUSH1 0xA0 ADD PUSH1 0x40 MSTORE DUP1 PUSH2 0xF75 PUSH2 0xFA9 JUMP JUMPDEST DUP2 MSTORE PUSH1 0x20 ADD PUSH2 0xF82 PUSH2 0x1007 JUMP JUMPDEST DUP2 MSTORE PUSH1 0x20 ADD PUSH2 0xF8F PUSH2 0x1007 JUMP JUMPDEST DUP2 MSTORE PUSH1 0x20 ADD PUSH2 0xF9C PUSH2 0x1007 JUMP JUMPDEST DUP2 MSTORE PUSH1 0x20 ADD PUSH1 0x60 DUP2 MSTORE POP SWAP1 JUMP JUMPDEST PUSH1 0x40 MLOAD DUP1 PUSH1 0x40 ADD PUSH1 0x40 MSTORE DUP1 PUSH1 0x0 DUP2 MSTORE PUSH1 0x20 ADD PUSH1 0x0 DUP2 MSTORE POP SWAP1 JUMP JUMPDEST PUSH1 0x40 MLOAD DUP1 PUSH1 0x60 ADD PUSH1 0x40 MSTORE DUP1 PUSH1 0x3 SWAP1 PUSH1 0x20 DUP3 MUL DUP1 CALLDATASIZE DUP4 CALLDATACOPY DUP1 DUP3 ADD SWAP2 POP POP SWAP1 POP POP SWAP1 JUMP JUMPDEST PUSH1 0x40 MLOAD DUP1 PUSH1 0x80 ADD PUSH1 0x40 MSTORE DUP1 PUSH1 0x4 SWAP1 PUSH1 0x20 DUP3 MUL DUP1 CALLDATASIZE DUP4 CALLDATACOPY DUP1 DUP3 ADD SWAP2 POP POP SWAP1 POP POP SWAP1 JUMP JUMPDEST PUSH1 0x40 MLOAD DUP1 PUSH1 0x40 ADD PUSH1 0x40 MSTORE DUP1 PUSH2 0x101A PUSH2 0x104F JUMP JUMPDEST DUP2 MSTORE PUSH1 0x20 ADD PUSH2 0x1027 PUSH2 0x104F JUMP JUMPDEST DUP2 MSTORE POP SWAP1 JUMP JUMPDEST PUSH1 0x40 MLOAD DUP1 PUSH1 0x20 ADD PUSH1 0x40 MSTORE DUP1 PUSH1 0x1 SWAP1 PUSH1 0x20 DUP3 MUL DUP1 CALLDATASIZE DUP4 CALLDATACOPY DUP1 DUP3 ADD SWAP2 POP POP SWAP1 POP POP SWAP1 JUMP JUMPDEST PUSH1 0x40 MLOAD DUP1 PUSH1 0x40 ADD PUSH1 0x40 MSTORE DUP1 PUSH1 0x2 SWAP1 PUSH1 0x20 DUP3 MUL DUP1 CALLDATASIZE DUP4 CALLDATACOPY DUP1 DUP3 ADD SWAP2 POP POP SWAP1 POP POP SWAP1 JUMP JUMPDEST PUSH1 0x0 PUSH1 0x40 MLOAD SWAP1 POP SWAP1 JUMP JUMPDEST PUSH1 0x0 DUP1 REVERT JUMPDEST PUSH1 0x0 DUP1 REVERT JUMPDEST PUSH1 0x0 PUSH1 0x1F NOT PUSH1 0x1F DUP4 ADD AND SWAP1 POP SWAP2 SWAP1 POP JUMP JUMPDEST PUSH32 0x4E487B7100000000000000000000000000000000000000000000000000000000 PUSH1 0x0 MSTORE PUSH1 0x41 PUSH1 0x4 MSTORE PUSH1 0x24 PUSH1 0x0 REVERT JUMPDEST PUSH2 0x10CE DUP3 PUSH2 0x1085 JUMP JUMPDEST DUP2 ADD DUP2 DUP2 LT PUSH8 0xFFFFFFFFFFFFFFFF DUP3 GT OR ISZERO PUSH2 0x10ED JUMPI PUSH2 0x10EC PUSH2 0x1096 JUMP JUMPDEST JUMPDEST DUP1 PUSH1 0x40 MSTORE POP POP POP JUMP JUMPDEST PUSH1 0x0 PUSH2 0x1100 PUSH2 0x1071 JUMP JUMPDEST SWAP1 POP PUSH2 0x110C DUP3 DUP3 PUSH2 0x10C5 JUMP JUMPDEST SWAP2 SWAP1 POP JUMP JUMPDEST PUSH1 0x0 DUP2 SWAP1 POP SWAP2 SWAP1 POP JUMP JUMPDEST PUSH2 0x1124 DUP2 PUSH2 0x1111 JUMP JUMPDEST DUP2 EQ PUSH2 0x112F JUMPI PUSH1 0x0 DUP1 REVERT JUMPDEST POP JUMP JUMPDEST PUSH1 0x0 DUP2 CALLDATALOAD SWAP1 POP PUSH2 0x1141 DUP2 PUSH2 0x111B JUMP JUMPDEST SWAP3 SWAP2 POP POP JUMP JUMPDEST PUSH1 0x0 PUSH1 0x40 DUP3 DUP5 SUB SLT ISZERO PUSH2 0x115D JUMPI PUSH2 0x115C PUSH2 0x1080 JUMP JUMPDEST JUMPDEST PUSH2 0x1167 PUSH1 0x40 PUSH2 0x10F6 JUMP JUMPDEST SWAP1 POP PUSH1 0x0 PUSH2 0x1177 DUP5 DUP3 DUP6 ADD PUSH2 0x1132 JUMP JUMPDEST PUSH1 0x0 DUP4 ADD MSTORE POP PUSH1 0x20 PUSH2 0x118B DUP5 DUP3 DUP6 ADD PUSH2 0x1132 JUMP JUMPDEST PUSH1 0x20 DUP4 ADD MSTORE POP SWAP3 SWAP2 POP POP JUMP JUMPDEST PUSH1 0x0 DUP1 REVERT JUMPDEST PUSH1 0x0 PUSH8 0xFFFFFFFFFFFFFFFF DUP3 GT ISZERO PUSH2 0x11B7 JUMPI PUSH2 0x11B6 PUSH2 0x1096 JUMP JUMPDEST JUMPDEST PUSH1 0x20 DUP3 MUL SWAP1 POP SWAP2 SWAP1 POP JUMP JUMPDEST PUSH1 0x0 DUP1 REVERT JUMPDEST PUSH1 0x0 PUSH2 0x11DA PUSH2 0x11D5 DUP5 PUSH2 0x119C JUMP JUMPDEST PUSH2 0x10F6 JUMP JUMPDEST SWAP1 POP DUP1 PUSH1 0x20 DUP5 MUL DUP4 ADD DUP6 DUP2 GT ISZERO PUSH2 0x11F4 JUMPI PUSH2 0x11F3 PUSH2 0x11C2 JUMP JUMPDEST JUMPDEST DUP4 JUMPDEST DUP2 DUP2 LT ISZERO PUSH2 0x121D JUMPI DUP1 PUSH2 0x1209 DUP9 DUP3 PUSH2 0x1132 JUMP JUMPDEST DUP5 MSTORE PUSH1 0x20 DUP5 ADD SWAP4 POP POP PUSH1 0x20 DUP2 ADD SWAP1 POP PUSH2 0x11F6 JUMP JUMPDEST POP POP POP SWAP4 SWAP3 POP POP POP JUMP JUMPDEST PUSH1 0x0 DUP3 PUSH1 0x1F DUP4 ADD SLT PUSH2 0x123C JUMPI PUSH2 0x123B PUSH2 0x1197 JUMP JUMPDEST JUMPDEST PUSH1 0x2 PUSH2 0x1249 DUP5 DUP3 DUP6 PUSH2 0x11C7 JUMP JUMPDEST SWAP2 POP POP SWAP3 SWAP2 POP POP JUMP JUMPDEST PUSH1 0x0 PUSH1 0x80 DUP3 DUP5 SUB SLT ISZERO PUSH2 0x1268 JUMPI PUSH2 0x1267 PUSH2 0x1080 JUMP JUMPDEST JUMPDEST PUSH2 0x1272 PUSH1 0x40 PUSH2 0x10F6 JUMP JUMPDEST SWAP1 POP PUSH1 0x0 PUSH2 0x1282 DUP5 DUP3 DUP6 ADD PUSH2 0x1227 JUMP JUMPDEST PUSH1 0x0 DUP4 ADD MSTORE POP PUSH1 0x40 PUSH2 0x1296 DUP5 DUP3 DUP6 ADD PUSH2 0x1227 JUMP JUMPDEST PUSH1 0x20 DUP4 ADD MSTORE POP SWAP3 SWAP2 POP POP JUMP JUMPDEST PUSH1 0x0 PUSH2 0x100 DUP3 DUP5 SUB SLT ISZERO PUSH2 0x12B9 JUMPI PUSH2 0x12B8 PUSH2 0x1080 JUMP JUMPDEST JUMPDEST PUSH2 0x12C3 PUSH1 0x60 PUSH2 0x10F6 JUMP JUMPDEST SWAP1 POP PUSH1 0x0 PUSH2 0x12D3 DUP5 DUP3 DUP6 ADD PUSH2 0x1147 JUMP JUMPDEST PUSH1 0x0 DUP4 ADD MSTORE POP PUSH1 0x40 PUSH2 0x12E7 DUP5 DUP3 DUP6 ADD PUSH2 0x1252 JUMP JUMPDEST PUSH1 0x20 DUP4 ADD MSTORE POP PUSH1 0xC0 PUSH2 0x12FB DUP5 DUP3 DUP6 ADD PUSH2 0x1147 JUMP JUMPDEST PUSH1 0x40 DUP4 ADD MSTORE POP SWAP3 SWAP2 POP POP JUMP JUMPDEST PUSH1 0x0 PUSH8 0xFFFFFFFFFFFFFFFF DUP3 GT ISZERO PUSH2 0x1322 JUMPI PUSH2 0x1321 PUSH2 0x1096 JUMP JUMPDEST JUMPDEST PUSH1 0x20 DUP3 MUL SWAP1 POP SWAP2 SWAP1 POP JUMP JUMPDEST PUSH1 0x0 PUSH2 0x1340 PUSH2 0x133B DUP5 PUSH2 0x1307 JUMP JUMPDEST PUSH2 0x10F6 JUMP JUMPDEST SWAP1 POP DUP1 PUSH1 0x20 DUP5 MUL DUP4 ADD DUP6 DUP2 GT ISZERO PUSH2 0x135A JUMPI PUSH2 0x1359 PUSH2 0x11C2 JUMP JUMPDEST JUMPDEST DUP4 JUMPDEST DUP2 DUP2 LT ISZERO PUSH2 0x1383 JUMPI DUP1 PUSH2 0x136F DUP9 DUP3 PUSH2 0x1132 JUMP JUMPDEST DUP5 MSTORE PUSH1 0x20 DUP5 ADD SWAP4 POP POP PUSH1 0x20 DUP2 ADD SWAP1 POP PUSH2 0x135C JUMP JUMPDEST POP POP POP SWAP4 SWAP3 POP POP POP JUMP JUMPDEST PUSH1 0x0 DUP3 PUSH1 0x1F DUP4 ADD SLT PUSH2 0x13A2 JUMPI PUSH2 0x13A1 PUSH2 0x1197 JUMP JUMPDEST JUMPDEST PUSH1 0x4 PUSH2 0x13AF DUP5 DUP3 DUP6 PUSH2 0x132D JUMP JUMPDEST SWAP2 POP POP SWAP3 SWAP2 POP POP JUMP JUMPDEST PUSH1 0x0 DUP1 PUSH2 0x180 DUP4 DUP6 SUB SLT ISZERO PUSH2 0x13D0 JUMPI PUSH2 0x13CF PUSH2 0x107B JUMP JUMPDEST JUMPDEST PUSH1 0x0 PUSH2 0x13DE DUP6 DUP3 DUP7 ADD PUSH2 0x12A2 JUMP JUMPDEST SWAP3 POP POP PUSH2 0x100 PUSH2 0x13F0 DUP6 DUP3 DUP7 ADD PUSH2 0x138D JUMP JUMPDEST SWAP2 POP POP SWAP3 POP SWAP3 SWAP1 POP JUMP JUMPDEST PUSH1 0x0 DUP2 ISZERO ISZERO SWAP1 POP SWAP2 SWAP1 POP JUMP JUMPDEST PUSH2 0x140F DUP2 PUSH2 0x13FA JUMP JUMPDEST DUP3 MSTORE POP POP JUMP JUMPDEST PUSH1 0x0 PUSH1 0x20 DUP3 ADD SWAP1 POP PUSH2 0x142A PUSH1 0x0 DUP4 ADD DUP5 PUSH2 0x1406 JUMP JUMPDEST SWAP3 SWAP2 POP POP JUMP JUMPDEST PUSH32 0x4E487B7100000000000000000000000000000000000000000000000000000000 PUSH1 0x0 MSTORE PUSH1 0x32 PUSH1 0x4 MSTORE PUSH1 0x24 PUSH1 0x0 REVERT JUMPDEST PUSH32 0x4E487B7100000000000000000000000000000000000000000000000000000000 PUSH1 0x0 MSTORE PUSH1 0x11 PUSH1 0x4 MSTORE PUSH1 0x24 PUSH1 0x0 REVERT JUMPDEST PUSH1 0x0 PUSH2 0x1499 DUP3 PUSH2 0x1111 JUMP JUMPDEST SWAP2 POP PUSH32 0xFFFFFFFFFFFFFFFFFFFFFFFFFFFFFFFFFFFFFFFFFFFFFFFFFFFFFFFFFFFFFFFF DUP3 SUB PUSH2 0x14CB JUMPI PUSH2 0x14CA PUSH2 0x145F JUMP JUMPDEST JUMPDEST PUSH1 0x1 DUP3 ADD SWAP1 POP SWAP2 SWAP1 POP JUMP JUMPDEST PUSH1 0x0 PUSH2 0x14E1 DUP3 PUSH2 0x1111 JUMP JUMPDEST SWAP2 POP PUSH2 0x14EC DUP4 PUSH2 0x1111 JUMP JUMPDEST SWAP3 POP DUP3 DUP3 ADD SWAP1 POP DUP1 DUP3 GT ISZERO PUSH2 0x1504 JUMPI PUSH2 0x1503 PUSH2 0x145F JUMP JUMPDEST JUMPDEST SWAP3 SWAP2 POP POP JUMP JUMPDEST PUSH32 0x4E487B7100000000000000000000000000000000000000000000000000000000 PUSH1 0x0 MSTORE PUSH1 0x12 PUSH1 0x4 MSTORE PUSH1 0x24 PUSH1 0x0 REVERT JUMPDEST PUSH1 0x0 PUSH2 0x1544 DUP3 PUSH2 0x1111 JUMP JUMPDEST SWAP2 POP PUSH2 0x154F DUP4 PUSH2 0x1111 JUMP JUMPDEST SWAP3 POP DUP3 PUSH2 0x155F JUMPI PUSH2 0x155E PUSH2 0x150A JUMP JUMPDEST JUMPDEST DUP3 DUP3 MOD SWAP1 POP SWAP3 SWAP2 POP POP JUMP JUMPDEST PUSH1 0x0 PUSH2 0x1575 DUP3 PUSH2 0x1111 JUMP JUMPDEST SWAP2 POP PUSH2 0x1580 DUP4 PUSH2 0x1111 JUMP JUMPDEST SWAP3 POP DUP3 DUP3 SUB SWAP1 POP DUP2 DUP2 GT ISZERO PUSH2 0x1598 JUMPI PUSH2 0x1597 PUSH2 0x145F JUMP JUMPDEST JUMPDEST SWAP3 SWAP2 POP POP JUMP JUMPDEST PUSH1 0x0 PUSH2 0x15A9 DUP3 PUSH2 0x1111 JUMP JUMPDEST SWAP2 POP PUSH2 0x15B4 DUP4 PUSH2 0x1111 JUMP JUMPDEST SWAP3 POP DUP3 DUP3 MUL PUSH2 0x15C2 DUP2 PUSH2 0x1111 JUMP JUMPDEST SWAP2 POP DUP3 DUP3 DIV DUP5 EQ DUP4 ISZERO OR PUSH2 0x15D9 JUMPI PUSH2 0x15D8 PUSH2 0x145F JUMP JUMPDEST JUMPDEST POP SWAP3 SWAP2 POP POP JUMP INVALID LOG2 PUSH5 0x6970667358 0x22 SLT KECCAK256 0xAA SIGNEXTEND 0xEB CALLCODE ADDRESS SWAP13 PUSH1 0xC0 0xD8 0xF7 SWAP15 0xF 0xCE 0xA7 0xAA PUSH16 0x65EE8D3A098DB0064D453864AE663A0A PUSH5 0x736F6C6343 STOP ADDMOD EQ STOP CALLER "},"methodIdentifiers":{"verifyTx(((uint256,uint256),(uint256[2],uint256[2]),(uint256,uint256)),uint256[4])":"799afa76"}}}}}