{
  "_format": "hh-sol-artifact-1",
  "contractName": "Earthereum",
  "sourceName": "contracts/Earthereum.sol",
  "abi": [
    {
      "inputs": [],
      "stateMutability": "nonpayable",
      "type": "constructor"
    },
    {
      "inputs": [],
      "name": "ERC721EnumerableForbiddenBatchMint",
      "type": "error"
    },
    {
      "inputs": [
        {
          "internalType": "address",
          "name": "sender",
          "type": "address"
        },
        {
          "internalType": "uint256",
          "name": "tokenId",
          "type": "uint256"
        },
        {
          "internalType": "address",
          "name": "owner",
          "type": "address"
        }
      ],
      "name": "ERC721IncorrectOwner",
      "type": "error"
    },
    {
      "inputs": [
        {
          "internalType": "address",
          "name": "operator",
          "type": "address"
        },
        {
          "internalType": "uint256",
          "name": "tokenId",
          "type": "uint256"
        }
      ],
      "name": "ERC721InsufficientApproval",
      "type": "error"
    },
    {
      "inputs": [
        {
          "internalType": "address",
          "name": "approver",
          "type": "address"
        }
      ],
      "name": "ERC721InvalidApprover",
      "type": "error"
    },
    {
      "inputs": [
        {
          "internalType": "address",
          "name": "operator",
          "type": "address"
        }
      ],
      "name": "ERC721InvalidOperator",
      "type": "error"
    },
    {
      "inputs": [
        {
          "internalType": "address",
          "name": "owner",
          "type": "address"
        }
      ],
      "name": "ERC721InvalidOwner",
      "type": "error"
    },
    {
      "inputs": [
        {
          "internalType": "address",
          "name": "receiver",
          "type": "address"
        }
      ],
      "name": "ERC721InvalidReceiver",
      "type": "error"
    },
    {
      "inputs": [
        {
          "internalType": "address",
          "name": "sender",
          "type": "address"
        }
      ],
      "name": "ERC721InvalidSender",
      "type": "error"
    },
    {
      "inputs": [
        {
          "internalType": "uint256",
          "name": "tokenId",
          "type": "uint256"
        }
      ],
      "name": "ERC721NonexistentToken",
      "type": "error"
    },
    {
      "inputs": [
        {
          "internalType": "address",
          "name": "owner",
          "type": "address"
        },
        {
          "internalType": "uint256",
          "name": "index",
          "type": "uint256"
        }
      ],
      "name": "ERC721OutOfBoundsIndex",
      "type": "error"
    },
    {
      "inputs": [],
      "name": "EnforcedPause",
      "type": "error"
    },
    {
      "inputs": [],
      "name": "ExpectedPause",
      "type": "error"
    },
    {
      "inputs": [
        {
          "internalType": "address",
          "name": "owner",
          "type": "address"
        }
      ],
      "name": "OwnableInvalidOwner",
      "type": "error"
    },
    {
      "inputs": [
        {
          "internalType": "address",
          "name": "account",
          "type": "address"
        }
      ],
      "name": "OwnableUnauthorizedAccount",
      "type": "error"
    },
    {
      "anonymous": false,
      "inputs": [
        {
          "indexed": true,
          "internalType": "address",
          "name": "owner",
          "type": "address"
        },
        {
          "indexed": true,
          "internalType": "address",
          "name": "approved",
          "type": "address"
        },
        {
          "indexed": true,
          "internalType": "uint256",
          "name": "tokenId",
          "type": "uint256"
        }
      ],
      "name": "Approval",
      "type": "event"
    },
    {
      "anonymous": false,
      "inputs": [
        {
          "indexed": true,
          "internalType": "address",
          "name": "owner",
          "type": "address"
        },
        {
          "indexed": true,
          "internalType": "address",
          "name": "operator",
          "type": "address"
        },
        {
          "indexed": false,
          "internalType": "bool",
          "name": "approved",
          "type": "bool"
        }
      ],
      "name": "ApprovalForAll",
      "type": "event"
    },
    {
      "anonymous": false,
      "inputs": [
        {
          "indexed": false,
          "internalType": "uint256",
          "name": "_fromTokenId",
          "type": "uint256"
        },
        {
          "indexed": false,
          "internalType": "uint256",
          "name": "_toTokenId",
          "type": "uint256"
        }
      ],
      "name": "BatchMetadataUpdate",
      "type": "event"
    },
    {
      "anonymous": false,
      "inputs": [
        {
          "indexed": false,
          "internalType": "uint256",
          "name": "_tokenId",
          "type": "uint256"
        }
      ],
      "name": "MetadataUpdate",
      "type": "event"
    },
    {
      "anonymous": false,
      "inputs": [
        {
          "indexed": true,
          "internalType": "address",
          "name": "previousOwner",
          "type": "address"
        },
        {
          "indexed": true,
          "internalType": "address",
          "name": "newOwner",
          "type": "address"
        }
      ],
      "name": "OwnershipTransferred",
      "type": "event"
    },
    {
      "anonymous": false,
      "inputs": [
        {
          "indexed": false,
          "internalType": "address",
          "name": "account",
          "type": "address"
        }
      ],
      "name": "Paused",
      "type": "event"
    },
    {
      "anonymous": false,
      "inputs": [
        {
          "indexed": true,
          "internalType": "address",
          "name": "from",
          "type": "address"
        },
        {
          "indexed": true,
          "internalType": "address",
          "name": "to",
          "type": "address"
        },
        {
          "indexed": true,
          "internalType": "uint256",
          "name": "tokenId",
          "type": "uint256"
        }
      ],
      "name": "Transfer",
      "type": "event"
    },
    {
      "anonymous": false,
      "inputs": [
        {
          "indexed": false,
          "internalType": "address",
          "name": "account",
          "type": "address"
        }
      ],
      "name": "Unpaused",
      "type": "event"
    },
    {
      "inputs": [
        {
          "internalType": "address",
          "name": "to",
          "type": "address"
        },
        {
          "internalType": "uint256",
          "name": "tokenId",
          "type": "uint256"
        }
      ],
      "name": "approve",
      "outputs": [],
      "stateMutability": "nonpayable",
      "type": "function"
    },
    {
      "inputs": [
        {
          "internalType": "address",
          "name": "owner",
          "type": "address"
        }
      ],
      "name": "balanceOf",
      "outputs": [
        {
          "internalType": "uint256",
          "name": "",
          "type": "uint256"
        }
      ],
      "stateMutability": "view",
      "type": "function"
    },
    {
      "inputs": [
        {
          "internalType": "uint256",
          "name": "tokenId",
          "type": "uint256"
        }
      ],
      "name": "burn",
      "outputs": [],
      "stateMutability": "nonpayable",
      "type": "function"
    },
    {
      "inputs": [
        {
          "internalType": "uint256",
          "name": "tokenId",
          "type": "uint256"
        }
      ],
      "name": "buy",
      "outputs": [],
      "stateMutability": "nonpayable",
      "type": "function"
    },
    {
      "inputs": [
        {
          "internalType": "uint256",
          "name": "area",
          "type": "uint256"
        },
        {
          "internalType": "uint256[4]",
          "name": "zkInput",
          "type": "uint256[4]"
        },
        {
          "components": [
            {
              "components": [
                {
                  "internalType": "uint256",
                  "name": "X",
                  "type": "uint256"
                },
                {
                  "internalType": "uint256",
                  "name": "Y",
                  "type": "uint256"
                }
              ],
              "internalType": "struct Pairing.G1Point",
              "name": "a",
              "type": "tuple"
            },
            {
              "components": [
                {
                  "internalType": "uint256[2]",
                  "name": "X",
                  "type": "uint256[2]"
                },
                {
                  "internalType": "uint256[2]",
                  "name": "Y",
                  "type": "uint256[2]"
                }
              ],
              "internalType": "struct Pairing.G2Point",
              "name": "b",
              "type": "tuple"
            },
            {
              "components": [
                {
                  "internalType": "uint256",
                  "name": "X",
                  "type": "uint256"
                },
                {
                  "internalType": "uint256",
                  "name": "Y",
                  "type": "uint256"
                }
              ],
              "internalType": "struct Pairing.G1Point",
              "name": "c",
              "type": "tuple"
            }
          ],
          "internalType": "struct Types.Proof",
          "name": "zkProof",
          "type": "tuple"
        },
        {
          "internalType": "string",
          "name": "uri",
          "type": "string"
        }
      ],
      "name": "claim",
      "outputs": [],
      "stateMutability": "nonpayable",
      "type": "function"
    },
    {
      "inputs": [
        {
          "internalType": "uint256",
          "name": "tokenId",
          "type": "uint256"
        }
      ],
      "name": "getApproved",
      "outputs": [
        {
          "internalType": "address",
          "name": "",
          "type": "address"
        }
      ],
      "stateMutability": "view",
      "type": "function"
    },
    {
      "inputs": [
        {
          "internalType": "address",
          "name": "_verifier",
          "type": "address"
        },
        {
          "internalType": "address",
          "name": "_earthToken",
          "type": "address"
        }
      ],
      "name": "initialize",
      "outputs": [],
      "stateMutability": "nonpayable",
      "type": "function"
    },
    {
      "inputs": [
        {
          "internalType": "address",
          "name": "owner",
          "type": "address"
        },
        {
          "internalType": "address",
          "name": "operator",
          "type": "address"
        }
      ],
      "name": "isApprovedForAll",
      "outputs": [
        {
          "internalType": "bool",
          "name": "",
          "type": "bool"
        }
      ],
      "stateMutability": "view",
      "type": "function"
    },
    {
      "inputs": [],
      "name": "name",
      "outputs": [
        {
          "internalType": "string",
          "name": "",
          "type": "string"
        }
      ],
      "stateMutability": "view",
      "type": "function"
    },
    {
      "inputs": [],
      "name": "owner",
      "outputs": [
        {
          "internalType": "address",
          "name": "",
          "type": "address"
        }
      ],
      "stateMutability": "view",
      "type": "function"
    },
    {
      "inputs": [
        {
          "internalType": "uint256",
          "name": "tokenId",
          "type": "uint256"
        }
      ],
      "name": "ownerOf",
      "outputs": [
        {
          "internalType": "address",
          "name": "",
          "type": "address"
        }
      ],
      "stateMutability": "view",
      "type": "function"
    },
    {
      "inputs": [],
      "name": "pause",
      "outputs": [],
      "stateMutability": "nonpayable",
      "type": "function"
    },
    {
      "inputs": [],
      "name": "paused",
      "outputs": [
        {
          "internalType": "bool",
          "name": "",
          "type": "bool"
        }
      ],
      "stateMutability": "view",
      "type": "function"
    },
    {
      "inputs": [
        {
          "internalType": "uint256",
          "name": "tokenId",
          "type": "uint256"
        }
      ],
      "name": "putForRent",
      "outputs": [],
      "stateMutability": "nonpayable",
      "type": "function"
    },
    {
      "inputs": [
        {
          "internalType": "uint256",
          "name": "tokenId",
          "type": "uint256"
        }
      ],
      "name": "putForSale",
      "outputs": [],
      "stateMutability": "nonpayable",
      "type": "function"
    },
    {
      "inputs": [],
      "name": "renounceOwnership",
      "outputs": [],
      "stateMutability": "nonpayable",
      "type": "function"
    },
    {
      "inputs": [
        {
          "internalType": "uint256",
          "name": "tokenId",
          "type": "uint256"
        }
      ],
      "name": "rent",
      "outputs": [],
      "stateMutability": "nonpayable",
      "type": "function"
    },
    {
      "inputs": [
        {
          "internalType": "address",
          "name": "to",
          "type": "address"
        },
        {
          "internalType": "string",
          "name": "uri",
          "type": "string"
        }
      ],
      "name": "safeMint",
      "outputs": [],
      "stateMutability": "nonpayable",
      "type": "function"
    },
    {
      "inputs": [
        {
          "internalType": "address",
          "name": "from",
          "type": "address"
        },
        {
          "internalType": "address",
          "name": "to",
          "type": "address"
        },
        {
          "internalType": "uint256",
          "name": "tokenId",
          "type": "uint256"
        }
      ],
      "name": "safeTransferFrom",
      "outputs": [],
      "stateMutability": "nonpayable",
      "type": "function"
    },
    {
      "inputs": [
        {
          "internalType": "address",
          "name": "from",
          "type": "address"
        },
        {
          "internalType": "address",
          "name": "to",
          "type": "address"
        },
        {
          "internalType": "uint256",
          "name": "tokenId",
          "type": "uint256"
        },
        {
          "internalType": "bytes",
          "name": "data",
          "type": "bytes"
        }
      ],
      "name": "safeTransferFrom",
      "outputs": [],
      "stateMutability": "nonpayable",
      "type": "function"
    },
    {
      "inputs": [
        {
          "internalType": "address",
          "name": "operator",
          "type": "address"
        },
        {
          "internalType": "bool",
          "name": "approved",
          "type": "bool"
        }
      ],
      "name": "setApprovalForAll",
      "outputs": [],
      "stateMutability": "nonpayable",
      "type": "function"
    },
    {
      "inputs": [
        {
          "internalType": "bytes4",
          "name": "interfaceId",
          "type": "bytes4"
        }
      ],
      "name": "supportsInterface",
      "outputs": [
        {
          "internalType": "bool",
          "name": "",
          "type": "bool"
        }
      ],
      "stateMutability": "view",
      "type": "function"
    },
    {
      "inputs": [],
      "name": "symbol",
      "outputs": [
        {
          "internalType": "string",
          "name": "",
          "type": "string"
        }
      ],
      "stateMutability": "view",
      "type": "function"
    },
    {
      "inputs": [
        {
          "internalType": "uint256",
          "name": "index",
          "type": "uint256"
        }
      ],
      "name": "tokenByIndex",
      "outputs": [
        {
          "internalType": "uint256",
          "name": "",
          "type": "uint256"
        }
      ],
      "stateMutability": "view",
      "type": "function"
    },
    {
      "inputs": [
        {
          "internalType": "address",
          "name": "owner",
          "type": "address"
        },
        {
          "internalType": "uint256",
          "name": "index",
          "type": "uint256"
        }
      ],
      "name": "tokenOfOwnerByIndex",
      "outputs": [
        {
          "internalType": "uint256",
          "name": "",
          "type": "uint256"
        }
      ],
      "stateMutability": "view",
      "type": "function"
    },
    {
      "inputs": [
        {
          "internalType": "uint256",
          "name": "tokenId",
          "type": "uint256"
        }
      ],
      "name": "tokenURI",
      "outputs": [
        {
          "internalType": "string",
          "name": "",
          "type": "string"
        }
      ],
      "stateMutability": "view",
      "type": "function"
    },
    {
      "inputs": [],
      "name": "totalSupply",
      "outputs": [
        {
          "internalType": "uint256",
          "name": "",
          "type": "uint256"
        }
      ],
      "stateMutability": "view",
      "type": "function"
    },
    {
      "inputs": [
        {
          "internalType": "address",
          "name": "from",
          "type": "address"
        },
        {
          "internalType": "address",
          "name": "to",
          "type": "address"
        },
        {
          "internalType": "uint256",
          "name": "tokenId",
          "type": "uint256"
        }
      ],
      "name": "transferFrom",
      "outputs": [],
      "stateMutability": "nonpayable",
      "type": "function"
    },
    {
      "inputs": [
        {
          "internalType": "address",
          "name": "newOwner",
          "type": "address"
        }
      ],
      "name": "transferOwnership",
      "outputs": [],
      "stateMutability": "nonpayable",
      "type": "function"
    },
    {
      "inputs": [],
      "name": "unpause",
      "outputs": [],
      "stateMutability": "nonpayable",
      "type": "function"
    }
  ],
  "bytecode": "0x60806040523480156200001157600080fd5b5033806040518060400160405280600481526020017f4c616e64000000000000000000000000000000000000000000000000000000008152506040518060400160405280600481526020017f4c414e440000000000000000000000000000000000000000000000000000000081525081600090816200009191906200048f565b508060019081620000a391906200048f565b5050506000600b60006101000a81548160ff021916908315150217905550600073ffffffffffffffffffffffffffffffffffffffff168173ffffffffffffffffffffffffffffffffffffffff1603620001365760006040517f1e4fbdf70000000000000000000000000000000000000000000000000000000081526004016200012d9190620005bb565b60405180910390fd5b62000147816200014f60201b60201c565b5050620005d8565b6000600b60019054906101000a900473ffffffffffffffffffffffffffffffffffffffff16905081600b60016101000a81548173ffffffffffffffffffffffffffffffffffffffff021916908373ffffffffffffffffffffffffffffffffffffffff1602179055508173ffffffffffffffffffffffffffffffffffffffff168173ffffffffffffffffffffffffffffffffffffffff167f8be0079c531659141344cd1fd0a4f28419497f9722a3daafe3b4186f6b6457e060405160405180910390a35050565b600081519050919050565b7f4e487b7100000000000000000000000000000000000000000000000000000000600052604160045260246000fd5b7f4e487b7100000000000000000000000000000000000000000000000000000000600052602260045260246000fd5b600060028204905060018216806200029757607f821691505b602082108103620002ad57620002ac6200024f565b5b50919050565b60008190508160005260206000209050919050565b60006020601f8301049050919050565b600082821b905092915050565b600060088302620003177fffffffffffffffffffffffffffffffffffffffffffffffffffffffffffffffff82620002d8565b620003238683620002d8565b95508019841693508086168417925050509392505050565b6000819050919050565b6000819050919050565b6000620003706200036a62000364846200033b565b62000345565b6200033b565b9050919050565b6000819050919050565b6200038c836200034f565b620003a46200039b8262000377565b848454620002e5565b825550505050565b600090565b620003bb620003ac565b620003c881848462000381565b505050565b5b81811015620003f057620003e4600082620003b1565b600181019050620003ce565b5050565b601f8211156200043f576200040981620002b3565b6200041484620002c8565b8101602085101562000424578190505b6200043c6200043385620002c8565b830182620003cd565b50505b505050565b600082821c905092915050565b6000620004646000198460080262000444565b1980831691505092915050565b60006200047f838362000451565b9150826002028217905092915050565b6200049a8262000215565b67ffffffffffffffff811115620004b657620004b562000220565b5b620004c282546200027e565b620004cf828285620003f4565b600060209050601f831160018114620005075760008415620004f2578287015190505b620004fe858262000471565b8655506200056e565b601f1984166200051786620002b3565b60005b8281101562000541578489015182556001820191506020850194506020810190506200051a565b868310156200056157848901516200055d601f89168262000451565b8355505b6001600288020188555050505b505050505050565b600073ffffffffffffffffffffffffffffffffffffffff82169050919050565b6000620005a38262000576565b9050919050565b620005b58162000596565b82525050565b6000602082019050620005d26000830184620005aa565b92915050565b61384180620005e86000396000f3fe608060405234801561001057600080fd5b50600436106101da5760003560e01c80636352211e11610104578063a22cb465116100a2578063d204c45e11610071578063d204c45e14610517578063d96a094a14610533578063e985e9c51461054f578063f2fde38b1461057f576101da565b8063a22cb46514610493578063b88d4fde146104af578063c87b56dd146104cb578063cbd8c703146104fb576101da565b80637456be7d116100de5780637456be7d146104315780638456cb591461044d5780638da5cb5b1461045757806395d89b4114610475576101da565b80636352211e146103c757806370a08231146103f7578063715018a614610427576101da565b806329ade8da1161017c57806342966c681161014b57806342966c6814610341578063485cc9551461035d5780634f6ccce7146103795780635c975abb146103a9576101da565b806329ade8da146102cf5780632f745c59146102eb5780633f4ba83a1461031b57806342842e0e14610325576101da565b8063095ea7b3116101b8578063095ea7b31461025d57806318160ddd146102795780631f078ced1461029757806323b872dd146102b3576101da565b806301ffc9a7146101df57806306fdde031461020f578063081812fc1461022d575b600080fd5b6101f960048036038101906101f491906127dc565b61059b565b6040516102069190612824565b60405180910390f35b6102176105ad565b60405161022491906128cf565b60405180910390f35b61024760048036038101906102429190612927565b61063f565b6040516102549190612995565b60405180910390f35b610277600480360381019061027291906129dc565b61065b565b005b610281610671565b60405161028e9190612a2b565b60405180910390f35b6102b160048036038101906102ac9190612927565b61067e565b005b6102cd60048036038101906102c89190612a46565b610681565b005b6102e960048036038101906102e49190612b45565b610783565b005b610305600480360381019061030091906129dc565b6109ab565b6040516103129190612a2b565b60405180910390f35b610323610a54565b005b61033f600480360381019061033a9190612a46565b610a66565b005b61035b60048036038101906103569190612927565b610a86565b005b61037760048036038101906103729190612bcf565b610a9d565b005b610393600480360381019061038e9190612927565b610b96565b6040516103a09190612a2b565b60405180910390f35b6103b1610c0c565b6040516103be9190612824565b60405180910390f35b6103e160048036038101906103dc9190612927565b610c23565b6040516103ee9190612995565b60405180910390f35b610411600480360381019061040c9190612c0f565b610c35565b60405161041e9190612a2b565b60405180910390f35b61042f610cef565b005b61044b60048036038101906104469190612927565b610d03565b005b610455610d06565b005b61045f610d18565b60405161046c9190612995565b60405180910390f35b61047d610d42565b60405161048a91906128cf565b60405180910390f35b6104ad60048036038101906104a89190612c68565b610dd4565b005b6104c960048036038101906104c49190612dd8565b610dea565b005b6104e560048036038101906104e09190612927565b610e07565b6040516104f291906128cf565b60405180910390f35b61051560048036038101906105109190612927565b610e19565b005b610531600480360381019061052c9190612efc565b610e1c565b005b61054d60048036038101906105489190612927565b610e58565b005b61056960048036038101906105649190612bcf565b610e5b565b6040516105769190612824565b60405180910390f35b61059960048036038101906105949190612c0f565b610eef565b005b60006105a682610f75565b9050919050565b6060600080546105bc90612f87565b80601f01602080910402602001604051908101604052809291908181526020018280546105e890612f87565b80156106355780601f1061060a57610100808354040283529160200191610635565b820191906000526020600020905b81548152906001019060200180831161061857829003601f168201915b5050505050905090565b600061064a82610fd6565b506106548261105e565b9050919050565b61066d828261066861109b565b6110a3565b5050565b6000600880549050905090565b50565b600073ffffffffffffffffffffffffffffffffffffffff168273ffffffffffffffffffffffffffffffffffffffff16036106f35760006040517f64a0ae920000000000000000000000000000000000000000000000000000000081526004016106ea9190612995565b60405180910390fd5b6000610707838361070261109b565b6110b5565b90508373ffffffffffffffffffffffffffffffffffffffff168173ffffffffffffffffffffffffffffffffffffffff161461077d578382826040517f64283d7b00000000000000000000000000000000000000000000000000000000815260040161077493929190612fb8565b60405180910390fd5b50505050565b600e60149054906101000a900460ff166107d2576040517f08c379a00000000000000000000000000000000000000000000000000000000081526004016107c99061303b565b60405180910390fd5b600d60009054906101000a900473ffffffffffffffffffffffffffffffffffffffff1673ffffffffffffffffffffffffffffffffffffffff1663799afa7684866040518363ffffffff1660e01b815260040161082f9291906131a4565b602060405180830381865afa15801561084c573d6000803e3d6000fd5b505050506040513d601f19601f8201168201806040525081019061087091906131e4565b6108af576040517f08c379a00000000000000000000000000000000000000000000000000000000081526004016108a69061325d565b60405180910390fd5b6000859050600e60009054906101000a900473ffffffffffffffffffffffffffffffffffffffff1673ffffffffffffffffffffffffffffffffffffffff1663a9059cbb33836040518363ffffffff1660e01b815260040161091192919061327d565b6020604051808303816000875af1158015610930573d6000803e3d6000fd5b505050506040513d601f19601f8201168201806040525081019061095491906131e4565b506109a33384848080601f016020809104026020016040519081016040528093929190818152602001838380828437600081840152601f19601f82011690508083019250505050505050610e1c565b505050505050565b60006109b683610c35565b82106109fb5782826040517fa57d13dc0000000000000000000000000000000000000000000000000000000081526004016109f292919061327d565b60405180910390fd5b600660008473ffffffffffffffffffffffffffffffffffffffff1673ffffffffffffffffffffffffffffffffffffffff168152602001908152602001600020600083815260200190815260200160002054905092915050565b610a5c6110cb565b610a64611152565b565b610a8183838360405180602001604052806000815250610dea565b505050565b610a99600082610a9461109b565b6110b5565b5050565b610aa56110cb565b600e60149054906101000a900460ff1615610af5576040517f08c379a0000000000000000000000000000000000000000000000000000000008152600401610aec906132f2565b60405180910390fd5b81600d60006101000a81548173ffffffffffffffffffffffffffffffffffffffff021916908373ffffffffffffffffffffffffffffffffffffffff16021790555080600e60006101000a81548173ffffffffffffffffffffffffffffffffffffffff021916908373ffffffffffffffffffffffffffffffffffffffff1602179055506001600e60146101000a81548160ff0219169083151502179055505050565b6000610ba0610671565b8210610be6576000826040517fa57d13dc000000000000000000000000000000000000000000000000000000008152600401610bdd92919061327d565b60405180910390fd5b60088281548110610bfa57610bf9613312565b5b90600052602060002001549050919050565b6000600b60009054906101000a900460ff16905090565b6000610c2e82610fd6565b9050919050565b60008073ffffffffffffffffffffffffffffffffffffffff168273ffffffffffffffffffffffffffffffffffffffff1603610ca85760006040517f89c62b64000000000000000000000000000000000000000000000000000000008152600401610c9f9190612995565b60405180910390fd5b600360008373ffffffffffffffffffffffffffffffffffffffff1673ffffffffffffffffffffffffffffffffffffffff168152602001908152602001600020549050919050565b610cf76110cb565b610d0160006111b5565b565b50565b610d0e6110cb565b610d1661127b565b565b6000600b60019054906101000a900473ffffffffffffffffffffffffffffffffffffffff16905090565b606060018054610d5190612f87565b80601f0160208091040260200160405190810160405280929190818152602001828054610d7d90612f87565b8015610dca5780601f10610d9f57610100808354040283529160200191610dca565b820191906000526020600020905b815481529060010190602001808311610dad57829003601f168201915b5050505050905090565b610de6610ddf61109b565b83836112de565b5050565b610df5848484610681565b610e018484848461144d565b50505050565b6060610e1282611604565b9050919050565b50565b610e246110cb565b6000600c6000815480929190610e3990613370565b919050559050610e498382611717565b610e538183611735565b505050565b50565b6000600560008473ffffffffffffffffffffffffffffffffffffffff1673ffffffffffffffffffffffffffffffffffffffff16815260200190815260200160002060008373ffffffffffffffffffffffffffffffffffffffff1673ffffffffffffffffffffffffffffffffffffffff16815260200190815260200160002060009054906101000a900460ff16905092915050565b610ef76110cb565b600073ffffffffffffffffffffffffffffffffffffffff168173ffffffffffffffffffffffffffffffffffffffff1603610f695760006040517f1e4fbdf7000000000000000000000000000000000000000000000000000000008152600401610f609190612995565b60405180910390fd5b610f72816111b5565b50565b6000634906490660e01b7bffffffffffffffffffffffffffffffffffffffffffffffffffffffff1916827bffffffffffffffffffffffffffffffffffffffffffffffffffffffff19161480610fcf5750610fce82611791565b5b9050919050565b600080610fe28361180b565b9050600073ffffffffffffffffffffffffffffffffffffffff168173ffffffffffffffffffffffffffffffffffffffff160361105557826040517f7e27328900000000000000000000000000000000000000000000000000000000815260040161104c9190612a2b565b60405180910390fd5b80915050919050565b60006004600083815260200190815260200160002060009054906101000a900473ffffffffffffffffffffffffffffffffffffffff169050919050565b600033905090565b6110b08383836001611848565b505050565b60006110c2848484611a0d565b90509392505050565b6110d361109b565b73ffffffffffffffffffffffffffffffffffffffff166110f1610d18565b73ffffffffffffffffffffffffffffffffffffffff16146111505761111461109b565b6040517f118cdaa70000000000000000000000000000000000000000000000000000000081526004016111479190612995565b60405180910390fd5b565b61115a611a2b565b6000600b60006101000a81548160ff0219169083151502179055507f5db9ee0a495bf2e6ff9c91a7834c1ba4fdd244a5e8aa4e537bd38aeae4b073aa61119e61109b565b6040516111ab9190612995565b60405180910390a1565b6000600b60019054906101000a900473ffffffffffffffffffffffffffffffffffffffff16905081600b60016101000a81548173ffffffffffffffffffffffffffffffffffffffff021916908373ffffffffffffffffffffffffffffffffffffffff1602179055508173ffffffffffffffffffffffffffffffffffffffff168173ffffffffffffffffffffffffffffffffffffffff167f8be0079c531659141344cd1fd0a4f28419497f9722a3daafe3b4186f6b6457e060405160405180910390a35050565b611283611a6b565b6001600b60006101000a81548160ff0219169083151502179055507f62e78cea01bee320cd4e420270b5ea74000d11b0c9f74754ebdbfc544b05a2586112c761109b565b6040516112d49190612995565b60405180910390a1565b600073ffffffffffffffffffffffffffffffffffffffff168273ffffffffffffffffffffffffffffffffffffffff160361134f57816040517f5b08ba180000000000000000000000000000000000000000000000000000000081526004016113469190612995565b60405180910390fd5b80600560008573ffffffffffffffffffffffffffffffffffffffff1673ffffffffffffffffffffffffffffffffffffffff16815260200190815260200160002060008473ffffffffffffffffffffffffffffffffffffffff1673ffffffffffffffffffffffffffffffffffffffff16815260200190815260200160002060006101000a81548160ff0219169083151502179055508173ffffffffffffffffffffffffffffffffffffffff168373ffffffffffffffffffffffffffffffffffffffff167f17307eab39ab6107e8899845ad3d59bd9653f200f220920489ca2b5937696c31836040516114409190612824565b60405180910390a3505050565b60008373ffffffffffffffffffffffffffffffffffffffff163b11156115fe578273ffffffffffffffffffffffffffffffffffffffff1663150b7a0261149161109b565b8685856040518563ffffffff1660e01b81526004016114b3949392919061340d565b6020604051808303816000875af19250505080156114ef57506040513d601f19601f820116820180604052508101906114ec919061346e565b60015b611573573d806000811461151f576040519150601f19603f3d011682016040523d82523d6000602084013e611524565b606091505b50600081510361156b57836040517f64a0ae920000000000000000000000000000000000000000000000000000000081526004016115629190612995565b60405180910390fd5b805181602001fd5b63150b7a0260e01b7bffffffffffffffffffffffffffffffffffffffffffffffffffffffff1916817bffffffffffffffffffffffffffffffffffffffffffffffffffffffff1916146115fc57836040517f64a0ae920000000000000000000000000000000000000000000000000000000081526004016115f39190612995565b60405180910390fd5b505b50505050565b606061160f82610fd6565b506000600a6000848152602001908152602001600020805461163090612f87565b80601f016020809104026020016040519081016040528092919081815260200182805461165c90612f87565b80156116a95780601f1061167e576101008083540402835291602001916116a9565b820191906000526020600020905b81548152906001019060200180831161168c57829003601f168201915b5050505050905060006116ba611aac565b905060008151036116cf578192505050611712565b6000825111156117045780826040516020016116ec9291906134d7565b60405160208183030381529060405292505050611712565b61170d84611ac3565b925050505b919050565b611731828260405180602001604052806000815250611b2c565b5050565b80600a6000848152602001908152602001600020908161175591906136a7565b507ff8e1a15aba9398e019f0b49df1a4fde98ee17ae345cb5f6b5e2c27f5033e8ce7826040516117859190612a2b565b60405180910390a15050565b60007f780e9d63000000000000000000000000000000000000000000000000000000007bffffffffffffffffffffffffffffffffffffffffffffffffffffffff1916827bffffffffffffffffffffffffffffffffffffffffffffffffffffffff19161480611804575061180382611b48565b5b9050919050565b60006002600083815260200190815260200160002060009054906101000a900473ffffffffffffffffffffffffffffffffffffffff169050919050565b80806118815750600073ffffffffffffffffffffffffffffffffffffffff168273ffffffffffffffffffffffffffffffffffffffff1614155b156119b557600061189184610fd6565b9050600073ffffffffffffffffffffffffffffffffffffffff168373ffffffffffffffffffffffffffffffffffffffff16141580156118fc57508273ffffffffffffffffffffffffffffffffffffffff168173ffffffffffffffffffffffffffffffffffffffff1614155b801561190f575061190d8184610e5b565b155b1561195157826040517fa9fbf51f0000000000000000000000000000000000000000000000000000000081526004016119489190612995565b60405180910390fd5b81156119b357838573ffffffffffffffffffffffffffffffffffffffff168273ffffffffffffffffffffffffffffffffffffffff167f8c5be1e5ebec7d5bd14f71427d1e84f3dd0314c0f7b2291e5b200ac8c7c3b92560405160405180910390a45b505b836004600085815260200190815260200160002060006101000a81548173ffffffffffffffffffffffffffffffffffffffff021916908373ffffffffffffffffffffffffffffffffffffffff16021790555050505050565b6000611a17611a6b565b611a22848484611c2a565b90509392505050565b611a33610c0c565b611a69576040517f8dfc202b00000000000000000000000000000000000000000000000000000000815260040160405180910390fd5b565b611a73610c0c565b15611aaa576040517fd93c066500000000000000000000000000000000000000000000000000000000815260040160405180910390fd5b565b606060405180602001604052806000815250905090565b6060611ace82610fd6565b506000611ad9611aac565b90506000815111611af95760405180602001604052806000815250611b24565b80611b0384611d47565b604051602001611b149291906134d7565b6040516020818303038152906040525b915050919050565b611b368383611e15565b611b43600084848461144d565b505050565b60007f80ac58cd000000000000000000000000000000000000000000000000000000007bffffffffffffffffffffffffffffffffffffffffffffffffffffffff1916827bffffffffffffffffffffffffffffffffffffffffffffffffffffffff19161480611c1357507f5b5e139f000000000000000000000000000000000000000000000000000000007bffffffffffffffffffffffffffffffffffffffffffffffffffffffff1916827bffffffffffffffffffffffffffffffffffffffffffffffffffffffff1916145b80611c235750611c2282611f0e565b5b9050919050565b600080611c38858585611f78565b9050600073ffffffffffffffffffffffffffffffffffffffff168173ffffffffffffffffffffffffffffffffffffffff1603611c7c57611c7784612192565b611cbb565b8473ffffffffffffffffffffffffffffffffffffffff168173ffffffffffffffffffffffffffffffffffffffff1614611cba57611cb981856121db565b5b5b600073ffffffffffffffffffffffffffffffffffffffff168573ffffffffffffffffffffffffffffffffffffffff1603611cfd57611cf88461233c565b611d3c565b8473ffffffffffffffffffffffffffffffffffffffff168173ffffffffffffffffffffffffffffffffffffffff1614611d3b57611d3a858561240d565b5b5b809150509392505050565b606060006001611d5684612498565b01905060008167ffffffffffffffff811115611d7557611d74612cad565b5b6040519080825280601f01601f191660200182016040528015611da75781602001600182028036833780820191505090505b509050600082602001820190505b600115611e0a578080600190039150507f3031323334353637383961626364656600000000000000000000000000000000600a86061a8153600a8581611dfe57611dfd613779565b5b04945060008503611db5575b819350505050919050565b600073ffffffffffffffffffffffffffffffffffffffff168273ffffffffffffffffffffffffffffffffffffffff1603611e875760006040517f64a0ae92000000000000000000000000000000000000000000000000000000008152600401611e7e9190612995565b60405180910390fd5b6000611e95838360006110b5565b9050600073ffffffffffffffffffffffffffffffffffffffff168173ffffffffffffffffffffffffffffffffffffffff1614611f095760006040517f73c6ac6e000000000000000000000000000000000000000000000000000000008152600401611f009190612995565b60405180910390fd5b505050565b60007f01ffc9a7000000000000000000000000000000000000000000000000000000007bffffffffffffffffffffffffffffffffffffffffffffffffffffffff1916827bffffffffffffffffffffffffffffffffffffffffffffffffffffffff1916149050919050565b600080611f848461180b565b9050600073ffffffffffffffffffffffffffffffffffffffff168373ffffffffffffffffffffffffffffffffffffffff1614611fc657611fc58184866125eb565b5b600073ffffffffffffffffffffffffffffffffffffffff168173ffffffffffffffffffffffffffffffffffffffff161461205757612008600085600080611848565b6001600360008373ffffffffffffffffffffffffffffffffffffffff1673ffffffffffffffffffffffffffffffffffffffff168152602001908152602001600020600082825403925050819055505b600073ffffffffffffffffffffffffffffffffffffffff168573ffffffffffffffffffffffffffffffffffffffff16146120da576001600360008773ffffffffffffffffffffffffffffffffffffffff1673ffffffffffffffffffffffffffffffffffffffff168152602001908152602001600020600082825401925050819055505b846002600086815260200190815260200160002060006101000a81548173ffffffffffffffffffffffffffffffffffffffff021916908373ffffffffffffffffffffffffffffffffffffffff160217905550838573ffffffffffffffffffffffffffffffffffffffff168273ffffffffffffffffffffffffffffffffffffffff167fddf252ad1be2c89b69c2b068fc378daa952ba7f163c4a11628f55a4df523b3ef60405160405180910390a4809150509392505050565b6008805490506009600083815260200190815260200160002081905550600881908060018154018082558091505060019003906000526020600020016000909190919091505550565b60006121e683610c35565b90506000600760008481526020019081526020016000205490508181146122cb576000600660008673ffffffffffffffffffffffffffffffffffffffff1673ffffffffffffffffffffffffffffffffffffffff168152602001908152602001600020600084815260200190815260200160002054905080600660008773ffffffffffffffffffffffffffffffffffffffff1673ffffffffffffffffffffffffffffffffffffffff168152602001908152602001600020600084815260200190815260200160002081905550816007600083815260200190815260200160002081905550505b6007600084815260200190815260200160002060009055600660008573ffffffffffffffffffffffffffffffffffffffff1673ffffffffffffffffffffffffffffffffffffffff16815260200190815260200160002060008381526020019081526020016000206000905550505050565b6000600160088054905061235091906137a8565b90506000600960008481526020019081526020016000205490506000600883815481106123805761237f613312565b5b9060005260206000200154905080600883815481106123a2576123a1613312565b5b9060005260206000200181905550816009600083815260200190815260200160002081905550600960008581526020019081526020016000206000905560088054806123f1576123f06137dc565b5b6001900381819060005260206000200160009055905550505050565b6000600161241a84610c35565b61242491906137a8565b905081600660008573ffffffffffffffffffffffffffffffffffffffff1673ffffffffffffffffffffffffffffffffffffffff168152602001908152602001600020600083815260200190815260200160002081905550806007600084815260200190815260200160002081905550505050565b600080600090507a184f03e93ff9f4daa797ed6e38ed64bf6a1f01000000000000000083106124f6577a184f03e93ff9f4daa797ed6e38ed64bf6a1f01000000000000000083816124ec576124eb613779565b5b0492506040810190505b6d04ee2d6d415b85acef81000000008310612533576d04ee2d6d415b85acef8100000000838161252957612528613779565b5b0492506020810190505b662386f26fc10000831061256257662386f26fc10000838161255857612557613779565b5b0492506010810190505b6305f5e100831061258b576305f5e100838161258157612580613779565b5b0492506008810190505b61271083106125b05761271083816125a6576125a5613779565b5b0492506004810190505b606483106125d357606483816125c9576125c8613779565b5b0492506002810190505b600a83106125e2576001810190505b80915050919050565b6125f68383836126af565b6126aa57600073ffffffffffffffffffffffffffffffffffffffff168373ffffffffffffffffffffffffffffffffffffffff160361266b57806040517f7e2732890000000000000000000000000000000000000000000000000000000081526004016126629190612a2b565b60405180910390fd5b81816040517f177e802f0000000000000000000000000000000000000000000000000000000081526004016126a192919061327d565b60405180910390fd5b505050565b60008073ffffffffffffffffffffffffffffffffffffffff168373ffffffffffffffffffffffffffffffffffffffff161415801561276757508273ffffffffffffffffffffffffffffffffffffffff168473ffffffffffffffffffffffffffffffffffffffff16148061272857506127278484610e5b565b5b8061276657508273ffffffffffffffffffffffffffffffffffffffff1661274e8361105e565b73ffffffffffffffffffffffffffffffffffffffff16145b5b90509392505050565b6000604051905090565b600080fd5b600080fd5b60007fffffffff0000000000000000000000000000000000000000000000000000000082169050919050565b6127b981612784565b81146127c457600080fd5b50565b6000813590506127d6816127b0565b92915050565b6000602082840312156127f2576127f161277a565b5b6000612800848285016127c7565b91505092915050565b60008115159050919050565b61281e81612809565b82525050565b60006020820190506128396000830184612815565b92915050565b600081519050919050565b600082825260208201905092915050565b60005b8381101561287957808201518184015260208101905061285e565b60008484015250505050565b6000601f19601f8301169050919050565b60006128a18261283f565b6128ab818561284a565b93506128bb81856020860161285b565b6128c481612885565b840191505092915050565b600060208201905081810360008301526128e98184612896565b905092915050565b6000819050919050565b612904816128f1565b811461290f57600080fd5b50565b600081359050612921816128fb565b92915050565b60006020828403121561293d5761293c61277a565b5b600061294b84828501612912565b91505092915050565b600073ffffffffffffffffffffffffffffffffffffffff82169050919050565b600061297f82612954565b9050919050565b61298f81612974565b82525050565b60006020820190506129aa6000830184612986565b92915050565b6129b981612974565b81146129c457600080fd5b50565b6000813590506129d6816129b0565b92915050565b600080604083850312156129f3576129f261277a565b5b6000612a01858286016129c7565b9250506020612a1285828601612912565b9150509250929050565b612a25816128f1565b82525050565b6000602082019050612a406000830184612a1c565b92915050565b600080600060608486031215612a5f57612a5e61277a565b5b6000612a6d868287016129c7565b9350506020612a7e868287016129c7565b9250506040612a8f86828701612912565b9150509250925092565b600080fd5b600081905082602060040282011115612aba57612ab9612a99565b5b92915050565b600080fd5b60006101008284031215612adc57612adb612ac0565b5b81905092915050565b600080fd5b600080fd5b60008083601f840112612b0557612b04612ae5565b5b8235905067ffffffffffffffff811115612b2257612b21612aea565b5b602083019150836001820283011115612b3e57612b3d612a99565b5b9250929050565b60008060008060006101c08688031215612b6257612b6161277a565b5b6000612b7088828901612912565b9550506020612b8188828901612a9e565b94505060a0612b9288828901612ac5565b9350506101a086013567ffffffffffffffff811115612bb457612bb361277f565b5b612bc088828901612aef565b92509250509295509295909350565b60008060408385031215612be657612be561277a565b5b6000612bf4858286016129c7565b9250506020612c05858286016129c7565b9150509250929050565b600060208284031215612c2557612c2461277a565b5b6000612c33848285016129c7565b91505092915050565b612c4581612809565b8114612c5057600080fd5b50565b600081359050612c6281612c3c565b92915050565b60008060408385031215612c7f57612c7e61277a565b5b6000612c8d858286016129c7565b9250506020612c9e85828601612c53565b9150509250929050565b600080fd5b7f4e487b7100000000000000000000000000000000000000000000000000000000600052604160045260246000fd5b612ce582612885565b810181811067ffffffffffffffff82111715612d0457612d03612cad565b5b80604052505050565b6000612d17612770565b9050612d238282612cdc565b919050565b600067ffffffffffffffff821115612d4357612d42612cad565b5b612d4c82612885565b9050602081019050919050565b82818337600083830152505050565b6000612d7b612d7684612d28565b612d0d565b905082815260208101848484011115612d9757612d96612ca8565b5b612da2848285612d59565b509392505050565b600082601f830112612dbf57612dbe612ae5565b5b8135612dcf848260208601612d68565b91505092915050565b60008060008060808587031215612df257612df161277a565b5b6000612e00878288016129c7565b9450506020612e11878288016129c7565b9350506040612e2287828801612912565b925050606085013567ffffffffffffffff811115612e4357612e4261277f565b5b612e4f87828801612daa565b91505092959194509250565b600067ffffffffffffffff821115612e7657612e75612cad565b5b612e7f82612885565b9050602081019050919050565b6000612e9f612e9a84612e5b565b612d0d565b905082815260208101848484011115612ebb57612eba612ca8565b5b612ec6848285612d59565b509392505050565b600082601f830112612ee357612ee2612ae5565b5b8135612ef3848260208601612e8c565b91505092915050565b60008060408385031215612f1357612f1261277a565b5b6000612f21858286016129c7565b925050602083013567ffffffffffffffff811115612f4257612f4161277f565b5b612f4e85828601612ece565b9150509250929050565b7f4e487b7100000000000000000000000000000000000000000000000000000000600052602260045260246000fd5b60006002820490506001821680612f9f57607f821691505b602082108103612fb257612fb1612f58565b5b50919050565b6000606082019050612fcd6000830186612986565b612fda6020830185612a1c565b612fe76040830184612986565b949350505050565b7f6e6f7420696e697469616c697a65640000000000000000000000000000000000600082015250565b6000613025600f8361284a565b915061303082612fef565b602082019050919050565b6000602082019050818103600083015261305481613018565b9050919050565b600082905092915050565b60006130756020840184612912565b905092915050565b613086816128f1565b82525050565b6040820161309d6000830183613066565b6130aa600085018261307d565b506130b86020830183613066565b6130c5602085018261307d565b50505050565b600082905092915050565b600082905092915050565b82818337505050565b6130f6604083836130e1565b5050565b6080820161310b60008301836130d6565b61311860008501826130ea565b5061312660408301836130d6565b61313360408501826130ea565b50505050565b610100820161314b600083018361305b565b613158600085018261308c565b5061316660408301836130cb565b61317360408501826130fa565b5061318160c083018361305b565b61318e60c085018261308c565b50505050565b6131a0608083836130e1565b5050565b6000610180820190506131ba6000830185613139565b6131c8610100830184613194565b9392505050565b6000815190506131de81612c3c565b92915050565b6000602082840312156131fa576131f961277a565b5b6000613208848285016131cf565b91505092915050565b7f766572696669636174696f6e206661696c656400000000000000000000000000600082015250565b600061324760138361284a565b915061325282613211565b602082019050919050565b600060208201905081810360008301526132768161323a565b9050919050565b60006040820190506132926000830185612986565b61329f6020830184612a1c565b9392505050565b7f616c726561647920696e697469616c697a656400000000000000000000000000600082015250565b60006132dc60138361284a565b91506132e7826132a6565b602082019050919050565b6000602082019050818103600083015261330b816132cf565b9050919050565b7f4e487b7100000000000000000000000000000000000000000000000000000000600052603260045260246000fd5b7f4e487b7100000000000000000000000000000000000000000000000000000000600052601160045260246000fd5b600061337b826128f1565b91507fffffffffffffffffffffffffffffffffffffffffffffffffffffffffffffffff82036133ad576133ac613341565b5b600182019050919050565b600081519050919050565b600082825260208201905092915050565b60006133df826133b8565b6133e981856133c3565b93506133f981856020860161285b565b61340281612885565b840191505092915050565b60006080820190506134226000830187612986565b61342f6020830186612986565b61343c6040830185612a1c565b818103606083015261344e81846133d4565b905095945050505050565b600081519050613468816127b0565b92915050565b6000602082840312156134845761348361277a565b5b600061349284828501613459565b91505092915050565b600081905092915050565b60006134b18261283f565b6134bb818561349b565b93506134cb81856020860161285b565b80840191505092915050565b60006134e382856134a6565b91506134ef82846134a6565b91508190509392505050565b60008190508160005260206000209050919050565b60006020601f8301049050919050565b600082821b905092915050565b60006008830261355d7fffffffffffffffffffffffffffffffffffffffffffffffffffffffffffffffff82613520565b6135678683613520565b95508019841693508086168417925050509392505050565b6000819050919050565b60006135a461359f61359a846128f1565b61357f565b6128f1565b9050919050565b6000819050919050565b6135be83613589565b6135d26135ca826135ab565b84845461352d565b825550505050565b600090565b6135e76135da565b6135f28184846135b5565b505050565b5b818110156136165761360b6000826135df565b6001810190506135f8565b5050565b601f82111561365b5761362c816134fb565b61363584613510565b81016020851015613644578190505b61365861365085613510565b8301826135f7565b50505b505050565b600082821c905092915050565b600061367e60001984600802613660565b1980831691505092915050565b6000613697838361366d565b9150826002028217905092915050565b6136b08261283f565b67ffffffffffffffff8111156136c9576136c8612cad565b5b6136d38254612f87565b6136de82828561361a565b600060209050601f83116001811461371157600084156136ff578287015190505b613709858261368b565b865550613771565b601f19841661371f866134fb565b60005b8281101561374757848901518255600182019150602085019450602081019050613722565b868310156137645784890151613760601f89168261366d565b8355505b6001600288020188555050505b505050505050565b7f4e487b7100000000000000000000000000000000000000000000000000000000600052601260045260246000fd5b60006137b3826128f1565b91506137be836128f1565b92508282039050818111156137d6576137d5613341565b5b92915050565b7f4e487b7100000000000000000000000000000000000000000000000000000000600052603160045260246000fdfea26469706673582212208360390ef77c0dca2e9071ede5569b341940727353068bae4b242046b4aa1c0164736f6c63430008140033",
  "linkReferences": {},
  "deployedLinkReferences": {}
}