{
  "_format": "hh-sol-artifact-1",
  "contractName": "IVerifier",
  "sourceName": "contracts/Earthereum.sol",
  "abi": [
    {
      "inputs": [
        {
          "components": [
            {
              "components": [
                {
                  "internalType": "uint256",
                  "name": "X",
                  "type": "uint256"
                },
                {
                  "internalType": "uint256",
                  "name": "Y",
                  "type": "uint256"
                }
              ],
              "internalType": "struct Pairing.G1Point",
              "name": "a",
              "type": "tuple"
            },
            {
              "components": [
                {
                  "internalType": "uint256[2]",
                  "name": "X",
                  "type": "uint256[2]"
                },
                {
                  "internalType": "uint256[2]",
                  "name": "Y",
                  "type": "uint256[2]"
                }
              ],
              "internalType": "struct Pairing.G2Point",
              "name": "b",
              "type": "tuple"
            },
            {
              "components": [
                {
                  "internalType": "uint256",
                  "name": "X",
                  "type": "uint256"
                },
                {
                  "internalType": "uint256",
                  "name": "Y",
                  "type": "uint256"
                }
              ],
              "internalType": "struct Pairing.G1Point",
              "name": "c",
              "type": "tuple"
            }
          ],
          "internalType": "struct Types.Proof",
          "name": "",
          "type": "tuple"
        },
        {
          "internalType": "uint256[4]",
          "name": "",
          "type": "uint256[4]"
        }
      ],
      "name": "verifyTx",
      "outputs": [
        {
          "internalType": "bool",
          "name": "",
          "type": "bool"
        }
      ],
      "stateMutability": "view",
      "type": "function"
    }
  ],
  "bytecode": "0x608060405234801561001057600080fd5b5061045d806100206000396000f3fe608060405234801561001057600080fd5b506004361061002b5760003560e01c8063799afa7614610030575b600080fd5b61004a600480360381019061004591906103af565b610060565b604051610057919061040c565b60405180910390f35b600092915050565b6000604051905090565b600080fd5b600080fd5b6000601f19601f8301169050919050565b7f4e487b7100000000000000000000000000000000000000000000000000000000600052604160045260246000fd5b6100c58261007c565b810181811067ffffffffffffffff821117156100e4576100e361008d565b5b80604052505050565b60006100f7610068565b905061010382826100bc565b919050565b6000819050919050565b61011b81610108565b811461012657600080fd5b50565b60008135905061013881610112565b92915050565b60006040828403121561015457610153610077565b5b61015e60406100ed565b9050600061016e84828501610129565b600083015250602061018284828501610129565b60208301525092915050565b600080fd5b600067ffffffffffffffff8211156101ae576101ad61008d565b5b602082029050919050565b600080fd5b60006101d16101cc84610193565b6100ed565b905080602084028301858111156101eb576101ea6101b9565b5b835b8181101561021457806102008882610129565b8452602084019350506020810190506101ed565b5050509392505050565b600082601f8301126102335761023261018e565b5b60026102408482856101be565b91505092915050565b60006080828403121561025f5761025e610077565b5b61026960406100ed565b905060006102798482850161021e565b600083015250604061028d8482850161021e565b60208301525092915050565b600061010082840312156102b0576102af610077565b5b6102ba60606100ed565b905060006102ca8482850161013e565b60008301525060406102de84828501610249565b60208301525060c06102f28482850161013e565b60408301525092915050565b600067ffffffffffffffff8211156103195761031861008d565b5b602082029050919050565b6000610337610332846102fe565b6100ed565b90508060208402830185811115610351576103506101b9565b5b835b8181101561037a57806103668882610129565b845260208401935050602081019050610353565b5050509392505050565b600082601f8301126103995761039861018e565b5b60046103a6848285610324565b91505092915050565b60008061018083850312156103c7576103c6610072565b5b60006103d585828601610299565b9250506101006103e785828601610384565b9150509250929050565b60008115159050919050565b610406816103f1565b82525050565b600060208201905061042160008301846103fd565b9291505056fea2646970667358221220a5c899ad33fded3babf14a11ef77178bfcb4de33fbb0e6050111d8af249aea2064736f6c63430008140033",
  "linkReferences": {},
  "deployedLinkReferences": {}
}